:1000000000200010C5000000C1000000C100000079
:1000100000000000000000000000000000000000E0
:10002000000000000000000000000000C10000000F
:100030000000000000000000C1000000C10000003E
:10004000C1000000C1000000C1000000C1000000AC
:10005000C1000000C1000000C1000000C10000009C
:10006000C1000000C100000000000000000000000E
:100070000000000000000000C1000000C1000000FE
:10008000C1000000C1000000C1000000C10000006C
:10009000C1000000C10000000000000000000000DE
:1000A000C1000000C1000000C1000000000000000D
:1000B0000000000000000000000000000000000040
:1000C000FEE7000010B5094A094B0A498B4207D3E5
:1000D0000021094B094A934205D300F011F8FEE7CD
:1000E00001CA01C3F2E702C3F5E7C04640010000C0
:1000F00000000010000000100000001000000010C0
:1001000040230B4A11680B431360802209490B6896
:1001100013430B600849094B0A601800013B002893
:10012000FBD1064B08601800013B0028FBD1F2E729
:10013000808004400080005000020050C027090069
:04000003000000C534
:00000001FF
