:1000000000200010C5000000C1000000C100000079
:1000100000000000000000000000000000000000E0
:10002000000000000000000000000000C10000000F
:100030000000000000000000C1000000C10000003E
:10004000C1000000C1000000C1000000C1000000AC
:10005000C1000000C1000000C1000000C10000009C
:10006000C1000000C100000000000000000000000E
:100070000000000000000000C1000000C1000000FE
:10008000C1000000C1000000C1000000C10000006C
:10009000C1000000C10000000000000000000000DE
:1000A000C1000000C1000000C1000000000000000D
:1000B0000000000000000000000000000000000040
:1000C000FEE7000010B5094A094B0A498B4207D3E5
:1000D0000021094B094A934205D300F02DF8FEE7B1
:1000E00001CA01C3F2E702C3F5E7C04654030000AA
:1000F00000000010000000100000001000000010C0
:10010000202303490A681A42FCD0024B186070474A
:10011000148000400080004010B504002378002BBC
:1001200000D110BD0A2B02D10D20FFF7E9FF207886
:10013000FFF7E6FF0134F1E78022F0B5274B92018B
:10014000196885B00A431A608022196852010A436F
:100150001A6080222721224B22481A60224A11600D
:100160000021224A116003221A60214B04321A60D6
:10017000FFF7D2FF1F48FFF7CFFF1F4B1F4A1A6040
:100180001F4B1A68002AFCDA1C680023240401AE05
:100190000925A40DB3729C420BD13020FFF7B0FFAC
:1001A0000A20FFF7ADFF174B1A00013B002AFBD1D5
:1001B000E0E720000A2100F0ADF830312000715551
:1001C0000A2100F021F827000400092F02D9013D7F
:1001D000EFD200257019FFF79FFFE1E78080044010
:1001E0000C8000402003000000800040048000409C
:1001F000088000404D03000000C00140010B0001D9
:1002000004C0014000350C00002243088B4274D327
:1002100003098B425FD3030A8B4244D3030B8B4207
:1002200028D3030C8B420DD3FF22090212BA030C10
:100230008B4202D31212090265D0030B8B4219D3F1
:1002400000E0090AC30B8B4201D3CB03C01A524111
:10025000830B8B4201D38B03C01A5241430B8B4259
:1002600001D34B03C01A5241030B8B4201D30B0342
:10027000C01A5241C30A8B4201D3CB02C01A524169
:10028000830A8B4201D38B02C01A5241430A8B422C
:1002900001D34B02C01A5241030A8B4201D30B0215
:1002A000C01A5241CDD2C3098B4201D3CB01C01A2F
:1002B000524183098B4201D38B01C01A5241430939
:1002C0008B4201D34B01C01A524103098B4201D327
:1002D0000B01C01A5241C3088B4201D3CB00C01A94
:1002E000524183088B4201D38B00C01A524143080C
:1002F0008B4201D34B00C01A5241411A00D2014631
:10030000524110467047FFE701B5002000F006F8A3
:1003100002BDC0460029F7D076E770477047C04657
:100320000A5B74345D204144432D4B616E616C3037
:10033000202847503236206D6974206164635F6203
:1003400072696467655F656E3D31290A00616463A7
:04035000303D00003C
:04000003000000C534
:00000001FF
