:1000000000200010C5000000C1000000C100000079
:1000100000000000000000000000000000000000E0
:10002000000000000000000000000000C10000000F
:100030000000000000000000C1000000C10000003E
:10004000C1000000C1000000C1000000C1000000AC
:10005000C1000000C1000000C1000000C10000009C
:10006000C1000000C100000000000000000000000E
:100070000000000000000000C1000000C1000000FE
:10008000C1000000C1000000C1000000C10000006C
:10009000C1000000C10000000000000000000000DE
:1000A000C1000000C1000000C1000000000000000D
:1000B0000000000000000000000000000000000040
:1000C000FEE7000010B5094A094B0A498B4207D3E5
:1000D0000021094B094A934205D300F045F8FEE799
:1000E00001CA01C3F2E702C3F5E7C046600400009D
:1000F0000000001000000010000000102801001097
:10010000202303490A681A42FCD0024B186070474A
:10011000148000400080004010B504002378002BBC
:1001200000D110BD0A2B02D10D20FFF7E9FF207886
:10013000FFF7E6FF0134F1E710B504000748C3609C
:10014000029B046003610123054C5B4241608260B5
:1001500023602100034B9847206810BD1401001054
:1001600000010010F11FFF1F8023F0B54E4A5B0114
:10017000116887B00B4313608022272100244B4B6A
:100180004B481A604B4A11604B4A146003221A60B4
:100190004A4B04321A60FFF7BFFF8023484F5B00D1
:1001A0003C5501349C42FBD100250E222B0011004E
:1001B00032200095FFF7C0FF0E2206001100414BD0
:1001C00034200095FFF7B8FF0E222B0011000643E4
:1001D00000953220FFF7B0FFE0213A4B0643009331
:1001E0003A00230033200902FFF7A6FF0643AE4280
:1001F00025D03548FFF790FF344B03AF1E68092424
:10020000BD72AE4206D13020FFF77AFF0A20FFF719
:1002100077FFFEE730000A2100F0ECF830313000C3
:1002200039550A2100F060F835000600092D02D981
:10023000013CEFD200243819FFF76EFFE6E7E02417
:100240002348FFF769FF0F2724022020FFF758FFFC
:10025000204826781C25FFF75FFFF6B23300EB40FD
:100260001D4A3B40D05C043DFFF74AFF2B1DF5D1F2
:100270001A4B01349C42E8D10A20FFF741FFE023EA
:10028000E12001211B0200021C78DAB2121B544249
:100290006241013311408342F6D11148002900D058
:1002A0001048FFF739FFFEE7808004400C800040D3
:1002B00018040000008000400480004008800040D6
:1002C00000000010E02E00002E04000000010010CD
:1002D0003D0400004C0400004F04000008E0000052
:1002E0000B04000000040000002243088B4274D37A
:1002F00003098B425FD3030A8B4244D3030B8B4227
:1003000028D3030C8B420DD3FF22090212BA030C2F
:100310008B4202D31212090265D0030B8B4219D310
:1003200000E0090AC30B8B4201D3CB03C01A524130
:10033000830B8B4201D38B03C01A5241430B8B4278
:1003400001D34B03C01A5241030B8B4201D30B0361
:10035000C01A5241C30A8B4201D3CB02C01A524188
:10036000830A8B4201D38B02C01A5241430A8B424B
:1003700001D34B02C01A5241030A8B4201D30B0234
:10038000C01A5241CDD2C3098B4201D3CB01C01A4E
:10039000524183098B4201D38B01C01A5241430958
:1003A0008B4201D34B01C01A524103098B4201D346
:1003B0000B01C01A5241C3088B4201D3CB00C01AB3
:1003C000524183088B4201D38B00C01A524143082B
:1003D0008B4201D34B00C01A5241411A00D2014650
:1003E000524110467047FFE701B5002000F006F8C3
:1003F00002BDC0460029F7D076E770477047C04677
:10040000564552494659206F6B0A00564552494697
:1004100059204641494C0A000A5B74365D20494127
:10042000502D466C6173682D546573740A00494100
:1004300050204665686C65722072633D00494150EA
:10044000206F6B2C2062797465733A00307800302D
:10045000313233343536373839414243444546002A
:04000003000000C534
:00000001FF
