:1000000000200010C5000000C1000000C100000079
:1000100000000000000000000000000000000000E0
:10002000000000000000000000000000C10000000F
:100030000000000000000000C1000000C10000003E
:10004000C1000000C1000000C1000000C1000000AC
:10005000C1000000C1000000C1000000C10000009C
:10006000C1000000C100000000000000000000000E
:100070000000000000000000C1000000C1000000FE
:10008000C1000000C1000000C1000000C10000006C
:10009000C1000000C10000000000000000000000DE
:1000A000C1000000C1000000C1000000000000000D
:1000B0000000000000000000000000000000000040
:1000C000FEE7000010B5094A094B0A498B4207D3E5
:1000D0000021094B094A934205D300F01DF8FEE7C1
:1000E00001CA01C3F2E702C3F5E7C046D001000030
:1000F00000000010000000100000001000000010C0
:10010000202303490A681A42FCD0024B186070474A
:100110001480004000800040F8B580231B4A5B013A
:1001200011681B4E0B43136080220021194B1A4D9E
:100130001A60593A3260194A116003221A60184B4A
:1001400004321A602C78002C15D10125FF27154A9E
:1001500013682B42FCD034683C402300613B192BD0
:1001600000D8203CE0B2FFF7CBFF0D2CEFD10A20E6
:10017000FFF7C6FFEBE70A2C02D10D20FFF7C0FF07
:1001800020000135FFF7BCFFDCE7C046808004405B
:10019000008000400C800040A80100000480004066
:1001A00008800040148000400A5B74325D20554195
:1001B00052542D4563686F206265726569742E2004
:1001C00054697070652065747761733A0A000000A5
:04000003000000C534
:00000001FF
