:1000000000200010C5000000C1000000C100000079
:1000100000000000000000000000000000000000E0
:10002000000000000000000000000000C10000000F
:100030000000000000000000C1000000C10000003E
:10004000C1000000C1000000C1000000C1000000AC
:10005000C1000000C1000000C1000000C10000009C
:10006000C1000000C100000000000000000000000E
:100070000000000000000000C1000000C1000000FE
:1000800039010000C1000000C1000000C1000000F3
:10009000C1000000C10000000000000000000000DE
:1000A000C1000000C1000000C1000000000000000D
:1000B0000000000000000000000000000000000040
:1000C000FEE7000010B5094A094B0A498B4207D3E5
:1000D0000021094B094A934205D300F047F8FEE797
:1000E00001CA01C3F2E702C3F5E7C046A00300005E
:1000F00000000010000000100000001008000010B8
:10010000202303490A681A42FCD0024B186070474A
:10011000148000400080004010B504002378002BBC
:1001200000D110BD0A2B02D10D20FFF7E9FF207886
:10013000FFF7E6FF0134F1E70123084A1360084A9C
:1001400011684B40136013685A1E9341054ADB0146
:100150001360054A136801331360704700C0004004
:10016000000000100002005004000010C022F0B592
:100170002D4B87B0196827200A431A60802219681E
:1001800052010A431A60802300242849284A0B6040
:100190001060284A2038146003220A60264908604B
:1001A0002649086803430B6002217720244B19601D
:1001B00024490860244925480860254925480A60E3
:1001C0008021254A4902116001221A60FFF7A4FF2D
:1001D000224B1F68A742FCD02148FFF79DFF002358
:1001E00003AD3E000924AB729F4207D13020FFF7D8
:1001F00087FF0A20FFF784FF3C00E9E730000A216F
:1002000000F0B6F83031300029550A21019600F08F
:1002100029F8019B0600092B02D9013CEED20024EB
:100220002819FFF779FFE4E7808004400C80004044
:1002300000800040048000400880004000800050A2
:1002400004C000400CC0004018C0004050C3000073
:1002500014C000407C03000000E100E00400001036
:1002600098030000002243088B4274D303098B4299
:100270005FD3030A8B4244D3030B8B4228D3030C76
:100280008B420DD3FF22090212BA030C8B4202D318
:100290001212090265D0030B8B4219D300E0090A40
:1002A000C30B8B4201D3CB03C01A5241830B8B4249
:1002B00001D38B03C01A5241430B8B4201D34B0332
:1002C000C01A5241030B8B4201D30B03C01A524197
:1002D000C30A8B4201D3CB02C01A5241830A8B421C
:1002E00001D38B02C01A5241430A8B4201D34B0205
:1002F000C01A5241030A8B4201D30B02C01A524169
:10030000CDD2C3098B4201D3CB01C01A524183091C
:100310008B4201D38B01C01A524143098B4201D356
:100320004B01C01A524103098B4201D30B01C01A81
:100330005241C3088B4201D3CB00C01A52418308FB
:100340008B4201D38B00C01A524143088B4201D328
:100350004B00C01A5241411A00D201465241104688
:100360007047FFE701B5002000F006F802BDC04667
:100370000029F7D076E770477047C0460A5B7433B0
:100380005D204354313642302D495251206C616515
:100390007566742E2E2E0A007469636B3D00000092
:04000003000000C534
:00000001FF
