:1000000000200010C5000000C1000000C100000079
:1000100000000000000000000000000000000000E0
:10002000000000000000000000000000C10000000F
:100030000000000000000000C1000000C10000003E
:10004000C1000000C1000000C1000000C1000000AC
:10005000C1000000C1000000C1000000C10000009C
:10006000C1000000C100000000000000000000000E
:100070000000000000000000C1000000C1000000FE
:10008000C1000000C1000000C1000000C10000006C
:10009000C1000000C10000000000000000000000DE
:1000A000C1000000C1000000C1000000000000000D
:1000B0000000000000000000000000000000000040
:1000C000FEE7000010B5094A094B0A498B4207D3E5
:1000D0000021094B094A934205D300F02DF8FEE7B1
:1000E00001CA01C3F2E702C3F5E7C0462C020000D3
:1000F00000000010000000100000001000000010C0
:10010000202303490A681A42FCD0024B186070474A
:10011000148000400080004010B504002378002BBC
:1001200000D110BD0A2B02D10D20FFF7E9FF207886
:10013000FFF7E6FF0134F1E77FB54022254B27208A
:10014000196801240A431A608022196852010A437F
:100150001A608022204B21491A6008600020204943
:1001600001250860032119601E4B043119601E4BE4
:100170000230196831268143196019681B480A4307
:100180001A60FFF7C9FF6442194B22001B685B0825
:100190002B40D9011C00174B1960A2420DD0164804
:1001A000FFF7BAFF00236A4693739C420BD13020BD
:1001B000FFF7A6FF0A20FFF7A3FF104B1A00013B31
:1001C000002AFBD1E0E70D2068445673FFF7A4FF37
:1001D000F0E7C046808004400C8000400080004072
:1001E00004800040088000400080005000020000B1
:1001F000FC3F00500002005028020000204E00008A
:100200000A5B74355D205370696567656C205030FA
:100210005F31202847503329202D3E2050305F3752
:0C0220002028475039290A00696E3D0073
:04000003000000C534
:00000001FF
