:1000000000200010C5000000C1000000C100000079
:1000100000000000000000000000000000000000E0
:10002000000000000000000000000000C10000000F
:100030000000000000000000C1000000C10000003E
:10004000C1000000C1000000C1000000C1000000AC
:10005000C1000000C1000000C1000000C10000009C
:10006000C1000000C100000000000000000000000E
:100070000000000000000000C1000000C1000000FE
:10008000C1000000C1000000C1000000C10000006C
:10009000C1000000C10000000000000000000000DE
:1000A000C1000000C1000000C1000000000000000D
:1000B0000000000000000000000000000000000040
:1000C000FEE7000010B5094A094B0A498B4207D3E5
:1000D0000021094B094A934205D300F029F8FEE7B5
:1000E00001CA01C3F2E702C3F5E7C0467C04000081
:1000F00000000010000000100000001000000010C0
:10010000034A0378002B00D1704701301370F8E7E1
:100110000000FF4F044B0209995C044A11700F2143
:1001200008401B5C13707047690400000000FF4F1B
:10013000F7B54048FFF7E4FF80233F4A5B011168B1
:1001400000250B43136080223C4B3D4C1A60593A0A
:1001500022603C4A3C4815601B221A603B4B143A13
:100160001A60FFF7CDFF3A48FFF7CAFF102300954A
:1001700001932023374D384E2F683370F8B2FFF7C4
:10018000C9FF01231F40009BDB190093019B013B2A
:100190000193002BEDD10A3330483370FFF7B0FFE5
:1001A0006B461878FFF7B6FF2D48FFF7A9FF009BB5
:1001B0002C48002B13D02C48FFF7A2FF2027012248
:1001C0002B68134208D0202333702068013FC0B24F
:1001D000FFF7A0FF002FF2D10A2324483370FFF766
:1001E0008FFF2348FFF78CFF2022224B2968114202
:1001F00002D1013B002BF9D15523012223601E4B74
:100200002968114211D024681C48FFF779FFE0B239
:10021000E4B2FFF77FFF1A48552C00D11948FFF7C9
:100220006FFF1948FFF76CFFFEE7013B002BE7D19A
:100230001648F4E790020000808004400C800040E3
:100240000080004004800040A802000008800040B8
:10025000C9020000148000400000FF4FE1020000CE
:10026000F50200006A030000040300001D03000003
:1002700093030000400D030080841E00AA030000C9
:10028000ED030000BE0300005C0400002004000039
:100290000A5B74375D2055415254302D44696167C3
:1002A0002073746172740A005B74375D207561722B
:1002B000745F696E69745F386531206F6B2C204CF8
:1002C00043523D307831420A005B74375D204C5315
:1002D000522078313620286F686E65205458293AAC
:1002E000005B74375D2044522D67657365747A74C2
:1002F00020696E200020766F6E20313620526561B5
:1003000064730A005B74375D205242522D4472615F
:10031000696E20286D6178203332293A005B74378A
:100320005D202D3E207561727430206D656C6465B2
:1003300074204F484E4520545820446174656E2007
:100340003D2069646C652D506567656C2F456D7542
:100350006C61746F722C204E494348542065636869
:1003600074652042797465730A005B74375D204CB4
:1003700053522E4452207361756265722030202DD5
:100380003E2052582069646C65206B6F7272656BF9
:10039000740A005B74375D2073656E6465202755B1
:1003A00027202830783535290A005B74375D2052C4
:1003B0005820656D7066616E67656E3A200020207A
:1003C0003D3D20275527202D3E204C4F4F50424188
:1003D000434B204F4B20284750303C2D3E47503157
:1003E0002076657262756E64656E290A0020202190
:1003F0003D20275527202D3E20616277656963687F
:10040000656E6420284672616D696E672F42727551
:1004100065636B652F456D756C61746F72290A0099
:100420005B74375D205258206E6963687473206571
:100430006D7066616E67656E20286B65696E6520FC
:1004400042727565636B65202F2054582D3E5258BB
:100450002067657472656E6E74290A005B74375D7F
:10046000206665727469670A00303132333435367C
:0C04700037383941424344454600000043
:04000003000000C534
:00000001FF
