:1000000000200010DD000000D70000009D1D000052
:1000100000000000000000000000000021DFFFEFF2
:10002000000000000000000000000000D9000000F7
:100030000000000000000000DB000000310E0000A6
:10004000D5000000D5000000D5000000D50000005C
:10005000D5000000D5000000D5000000D50000004C
:10006000D5000000D5000000D5000000D50000003C
:10007000D5000000D5000000D5000000D50000002C
:10008000D50000008D1D0000D5000000D500000047
:10009000D5000000210E000000000000000000005C
:1000A000D5000000D5000000D500000000000000D1
:1000B000D5000000D5000000D5000000D5000000EC
:1000C00054370000000000106000000060000010C5
:1000D00000020000FEE7FEE7FEE7FEE7F7B5764B1D
:1000E00076498B4200D2CCE0002075498B4200D289
:1000F000D5E002F0CBFD02F095FFFA21714F8900A7
:10010000386802F007FE00F0CBFFC0216E48C9013D
:1001100001F002F8C0216D48C90100F0FDFF6C4CF0
:100120006C4B2000019302F0BBF9200000F062F953
:100130000028F4D10823FA21674A8900136238683D
:1001400002F0E8FD00F0ACFFFA2164488900644E3B
:1001500000F0E7F8634B644C5B7E002B01D000F0AD
:10016000B2FE6249624800F0D7FF2300FF335B7E96
:10017000002B01D000F0A7FE5E495F4800F0CCFFE5
:100180002300FF335B7E002B01D000F09CFEBFF309
:100190004F8FBFF36F8F8022584B9203DA67802313
:1001A000574A5B01D16F574D0B43D3670122564B22
:1001B0001A608232EA60554A3868926F1968504373
:1001C00002F0A8FDE1210009490202F0A3FD030AA3
:1001D0006B600323C0B22860EB600433AB60002384
:1001E00001212B616A6820000A436A60A360E36012
:1001F0002361636100F09CFD01226B69134259D1B8
:10020000C520434B80001958424A434D1140C0223B
:1002100012020A431A50802292031A60230001221C
:10022000FF3328005A7602F031FF29000200200037
:1002300000F048FD0D21200000F055FD0A212000AE
:1002400000F051FDB2683549F3680133F360F3689B
:100250001B03DB0F9B014B60002AF5D0019B1B6841
:100260009B1AF1D43000FA21002389000830B360D2
:1002700000F057F818490B6A5A425341DB000B62F1
:10028000E0E700221D685F689868BE18AC189042CD
:1002900001D80C3325E7246804323460F5E70022E6
:1002A0001E685C68B518944201D808331EE72860C0
:1002B0000432F7E72B689FE7C0000000CC00000085
:1002C000D4000000080000104682010063823D0057
:1002D000700000106000001000000350E8000010E3
:1002E000E0000010130200101401001000103C0088
:1002F00026C23300006040002702340004E100E021
:100300000480044000800040988004400080044045
:1003100000E100E0FF00FFFF0C340000FC00025091
:100320007047044B1B68C918002900D101310160D6
:100330007047C046600000100069704700690130D6
:1003400070470069023070470069033070470069E8
:100350000430704700690530704700690630704707
:10036000006907307047006908307047006909303C
:10037000704700690A30704700690B3070470069A8
:100380000C30704700690D30704700690E307047BF
:1003900000690F30704700691030704700691130F4
:1003A0007047006912307047006913307047006968
:1003B0001430704700691530704700691630704777
:1003C0000069173070470069193070470069FF30C5
:1003D0007047006962307047006963307047602081
:1003E00070476120704701487047C046FC330000E9
:1003F0001220704770B50379002B01D1002070BD29
:10040000836EC06E1D7D5C7D03689B6C98470923DD
:100410001D40082DF2D10378601EFF3B5A42534124
:10042000424250411840EAE78182704700207047FD
:10043000E02310B59B0099420DD1030001224833FF
:100440001A704379FA215A1E9341020049321370FF
:100450004C30FFF766FF002010BD172070470022C8
:10046000836A5A60704770B50400006D0D00036820
:10047000DB6E98470678206D36020368DB6E98477E
:10048000437833439D4211D0206D0368DB6E98475B
:100490002B0A0370206D0368DB6E984701234570BB
:1004A000226D1375024B1B6832339361A58270BDB8
:1004B0006000001070B50500006D0C000368DB687B
:1004C0009847002805D0286D036821001B689847CD
:1004D00070BD286B21000368DB6898470028F7D0BF
:1004E000286BF1E737B51400F0220125806B9200EC
:1004F0000A406D4201680095CD682100A84701209F
:100500003EBDC023F7B5089C05009B00994200D171
:1005100077E00BD880200E00013BFF3B86439E42D4
:100520002DD0803B99421BD00020FEBD5D4B9942EF
:100530007CD05D4B994200D1AAE0E0239B00994218
:10054000F2D10300012248331A704379FA215A1E6E
:1005500093410200493213704C30FFF7E2FEE3E7AB
:100560006423D179127A6371633BA371413B0B43DE
:10057000E371002322726372A3720120D5E70F2377
:10058000D679107A1E40537A1B0203435BBA9BB2A2
:100590000193A0239B0099421AD022002B682800C7
:1005A0005B6C01991F000A323300B847431E984123
:1005B000404206403300633363710223A3713E332C
:1005C0003343E371019B1B0A2372019B6372D4E7DF
:1005D0002B6828001B6C01991F000A323300B847B2
:1005E0000028A1D02B6828009B6B98471F289BD917
:1005F000286B03685B69984703785B0700D493E72F
:10060000CBE7D3799B0600D08EE763236371603B11
:10061000A3713D33E37103689B6B9847000A207216
:100620002B6828009B6B98476072A6E7137A072B0C
:1006300007D1537A0222FF2B0AD103220021012382
:1006400008E05A1E062A20D802220021012B01D0E0
:100650001100002364202172002160716138A071B3
:100660009E30E0716172A3728A4286D02B004833BB
:100670001A706B7928005A1E93412A004932137070
:100680004C30FA31FFF74DFE77E700220221E0E718
:10069000622363715F3BA371CF33E3710023237245
:1006A0006BE7C04681030000D1030000C36A002B42
:1006B00009D102005F3213785A300133137040239E
:1006C0000288134303807047036870B59B68040079
:1006D0000D00984743780020052B04D92368290092
:1006E00020005B68984770BD7FB505000E0001AC27
:1006F0000A220B49200002F0C0FC2B6831009B68E5
:100700002800984743780120052B04DD0F2B04DCDB
:10071000E418063C207804B070BD01204042FAE79E
:1007200001340000436810B50400186D0368DB6DE8
:1007300098470178081E06D06068036D5B68C91889
:1007400089B2FFF7B7FE10BD036810B51B6904003E
:100750009847002803D041786068FFF7ABFE10BDD2
:10076000036810B51B690C009847002803D00321CB
:1007700061430231401810BD10B50400FFF7F0FFCF
:10078000031E0BD05B78017860689B0603D5036D70
:100790005B68C91889B2FFF78DFE0300180010BD11
:1007A00010B5FFF7DDFF013010BD0023421D43717E
:1007B000D377821DD377C21DD377012252420281A3
:1007C00002320271024AC380C3609380D3807047B3
:1007D000600000100222431D10B5DA770F238169F3
:1007E0004A791A40036807325B6A984710BD10B512
:1007F000036B1B7DDB0710D5C02905D080235B0070
:1008000099420CD0002010BD517A137A0902194385
:10081000036849BADB6889B298470120F3E7431DB2
:10082000DA7FD1B2002AFBD10132DA778369B024B2
:10083000D9701971E1219A713F321C705971DA71C6
:10084000FFF7C8FFE9E770B50500C36B04005A3530
:10085000002B13D00022C26380682B88411DCA7709
:10086000826992797F2A09D91B060ED50B23C356BC
:10087000022B0ADC0133C372FFF7ACFF0023E361F4
:100880006362A3632B80E36570BD0023C372F5E749
:10089000F0B585B00393036802911B68040017004C
:1008A0009847029906002000FFF70EFF63685A1D63
:1008B000D17FCDB2AC460029FAD10131D1779B6905
:1008C000BC22B9B21F710F271A700A0ADA70421CD3
:1008D0001740202252423A435A71039A8027002A35
:1008E00000D0403F00281CD01A00013E08320028EA
:1008F00012DC00229A7162463A43DA710298226849
:100900000090D66820008022B0476068FFF762FF41
:10091000029BE36005B0F0BD355C01381570013213
:10092000E5E732789446E4E7F0B589B0069343688A
:100930000400586B0491036805929B6898476368AC
:1009400005780190586B049903681B6898470390D9
:10095000002808DB6B000793019B5F1C019B079A33
:10096000FB1A9A4201DA09B0F0BD3B78039A934230
:1009700038D17D780E9B9D4234D0236829009B6836
:10098000200098474022059E0378403E964332D18E
:100990002C3A1340934225D12368290020001B687C
:1009A0009847029000281DD029002000FFF78CFEF8
:1009B000002819DD069AC31DD31872429A5C029969
:1009C0008A550136B042F8D1236820005B69984708
:1009D000002807D08022EB0700D4783A6D10435DE1
:1009E000134343550237B9E73F22069BDB79134097
:1009F000029A1370E8E7059A002AF3D10C321340EB
:100A00009342EFD1012329002000049AFFF740FF11
:100A1000E8E7F8B50C00411DCD7F002DFCD1013574
:100A2000CD774021160A81278569D2B20C4203D0C6
:100A30009B0023431943CFB2B0232B70503BEE7081
:100A4000AF712A716B71FFF7C5FEF8BD0A4A10B588
:100A500093880400013393804379002B01D0002355
:100A6000437181212000E2880023FFF7D2FF236831
:100A700020009B6A984710BD600000100023821D73
:100A80000730D377C3777047426803000020914254
:100A900003D39B688B424041C0B27047030010B53E
:100AA0000020914206D85C68A14203D39B68934220
:100AB0004041C0B210BD43680069C91A4018704770
:100AC00042680300891AC2680020013A8A4201D3B1
:100AD0001B69585C70474368C268C91A10B5013A6F
:100AE0004C1C0023944205D803695A5C1B5D12021A
:100AF00013431BB298B210BD43680069C91A40186D
:100B0000704742680300891AC2680020013A8A428D
:100B100001D31B69585C70474368C268C91A10B595
:100B2000013A4C1C0023944205D803695A5C1B5DB2
:100B3000120213431BB298B210BD10B5141E04D09C
:100B4000BFF34F8FBFF36F8F72B6034B9847002CE4
:100B500000D062B610BDC046F11FFF1F322370B532
:100B60008AB000930309019306000B090D000122CE
:100B7000684605A90293FFF7E0FF059B6C46DBB2D0
:100B80000593002B0FD1FA213B330093084B8900CA
:100B900018680196029502F0BDF80122039005A99C
:100BA0006846FFF7CAFF6069C0B20AB070BDC046B0
:100BB00008000010F0B58DB0050016000191BFF3DC
:100BC0004F8FBFF36F8F72B632230293C3171B058B
:100BD0001B0DC318013A02AC82181B136360D317B4
:100BE0001B051B0D9B181B1300222000A36007A9E7
:100BF000FFF7A3FF6769FFB26761002F04D062B6F9
:100C00006069C0B20DB0F0BD3323FA210293019B9D
:100C10008900A3600C4B65601868E66002F07AF802
:100C20003A00206107A92000FFF787FF6269002AC8
:100C3000E5D138230293019B20006560A360E66044
:100C400007A9FFF77AFFDAE70800001070B50C4E2D
:100C50008AB0B068002811D1352302240093012204
:100C6000684605A901940294FFF767FF059B072BCF
:100C700002D00234802CF2D12003B0600AB070BDE3
:100C800060000010F8B50400FFF7E0FF0C4FC51935
:100C9000FFF7DCFFC7198020E6694001310002F050
:100CA00039F8013870433818A84201D20020F8BD45
:100CB000E368C318013B1B78FF2BF8D1801BF3E7D7
:100CC00000F0FFFFF8B505000C0000268F18BC42AD
:100CD00001D13000F8BD2B68217828005B68984767
:100CE00001343618F3E70200FF32527E0300101E73
:100CF0000DD018695A6990420AD10C4A5069800691
:100D000006D511600223012051680B4353607047E0
:100D10007F205A690132024018698242FCD058692A
:100D20001818983001705A61004AEBE700800040C3
:100D30000300FF335B7E002B03D0026943699A42B4
:100D4000FBD17047194B30B55A69920607D5016936
:100D50004269914209D102215A688A435A600124AA
:100D60007F215A6922420DD130BD7F21026982184C
:100D7000983212781A6002690132026102690A40EF
:100D80000261ECE7C268856801320A40AA420AD0D3
:100D90001D68C26882181576C2680132C260C268D6
:100DA0000A40C260DDE71A68DBE7C0460080004009
:100DB000030070B5FF335B7E002B28D07F25C3680E
:100DC0008168C468826801332B4094421CD08268D9
:100DD0008218147E82680132826082682A408260B2
:100DE0008B420FD10B4B5B69DB070BD5BFF34F8FEA
:100DF000BFF36F8F8025084BAD03DD67FFF7A2FFC0
:100E0000064B1D60200070BD01246442E8E7012408
:100E10006442F7E70080004004E100E000E100E008
:100E200010B50248FFF78EFF10BDC0461401001038
:100E3000024A1368013313607047C0466000001017
:100E4000036870B55B680C0098470300021E00D071
:100E50000278012021120333E4B2824202DA012037
:100E6000404270BD1D788D4202D15D78A542F8D018
:100E700001300233F1E7436810B5D86E03689B6E0A
:100E8000984710BD436810B5D86E036804699B6D20
:100E900098470078201810BDC26883689A4203D032
:100EA0008368C018007E704701204042FBE7C3689A
:100EB0008068181A00D580307047036810B55B68E9
:100EC0009847007810BD10B50A4C2000FFF730FF9E
:100ED000BFF34F8FBFF36F8F8022074B9203DA6708
:100EE000064A0749D36FFF340B40D367002363766C
:100EF00010BDC0461401001004E100E0048004406D
:100F0000FFEFFFFF0323594310B589B20624802A5F
:100F100000D1043C07228A408C40836A93432343D8
:100F2000836210BD30B5032407254C43A540A24081
:100F300043694900AB43134330228A404361C36B8A
:100F40009343C36330BD70B5836A9868808A040A8E
:100F50004C708870FF24002085B2AA421BD88C54A4
:100F6000D963BFF34F8FBFF36F8F72B6DA7E012A5A
:100F70000FD10621D976D968086802214160426004
:100F8000997E03008C0018331B191A600232FFF798
:100F9000C9FF62B670BD0D5C01306C40DCE7F7B58F
:100FA000040001270191BFF34F8FBFF36F8F72B61B
:100FB000E27E012A0DD00023062A1FD1E36B002B0D
:100FC00007D023005E331B78002B1CD1019A002A26
:100FD00014D1E36880221D68217E2800FFF792FF6C
:100FE000A67E280031000222FFF79CFF1835074B30
:100FF000B600AD192B600023E3763B0062B630BF2C
:10100000002BD0D0F7BD0023F8E7C046FEFF00005C
:1010100010B504000121806A4834FFF7C0FF23782F
:10102000032B08D1BFF34F8FBFF36F8F72B68023AE
:10103000054A5B051A60BFF34F8F044B044ADA6020
:10104000BFF34F8FFEE7C04655B01F5E00ED00E0D6
:101050000400FA0570B50500C368017E1C68812292
:101060002000FFF74FFFAE7E200031000122FFF786
:1010700059FF02236360013B6360B600064B1834DE
:10108000A61933606B7E9B00E418044B2360002399
:10109000EB76EB6270BDC04617110000FFFF000049
:1010A000802301385B0498420DD2C021064A09060C
:1010B00050600648036A1B021B0A0B4303620023AD
:1010C000936007331360704710E000E000ED00E02C
:1010D000802070B54004FFF7E3FF00F0ABF81F215C
:1010E00001220A4B80241B68094D19408A405B0687
:1010F00008499B0F9B005958E4039000AB682340BC
:101100005E4273415B4213404350F7E7000000101A
:1011100010E000E040340000F0B5430685B09B0FBE
:101120003B4E01939B009A591F238DB203400293BB
:101130002B0B1B03039301231C009C46029B8F1463
:101140009C408023A4B26D0B1B02032D24D1D558E3
:101150002543D550E022039C0623D20194424BD173
:101160000905090DC20501D58022114300221F2463
:101170004012050025409D4244D10C2301980A43AA
:10118000434302981B185B00F3181B8C21481B1863
:101190009B001A6005B0F0BDD558A543D5508022FC
:1011A000039C00239201944217D11B4A904203D121
:1011B0001A4A13600723D3E7194A904203D1174B09
:1011C00062461A60F6E7174A904201D1164AF0E7E4
:1011D000164B9842EED1144BF2E70F2F0CD1320090
:1011E00010329C00A458A04204D00133042BF8D143
:1011F000FFF76EFF0E4A13603B1C002F00DC01233B
:101200001BB2ADE701324011042AB2D1F0E7C0466B
:10121000403400000010011002C23A00C0400440F7
:1012200063823D0025423C00D040044049C2010099
:10123000D4400440C02110B5054CC9012068FFF717
:101240006BFF802160684901FFF766FF10BDC04653
:1012500000000010F0B507000C00806A00218DB07E
:10126000FFF79DFEB86D002803D0036821001B68BE
:1012700098473E6D337D002B6ED0BFF34F8FBFF389
:101280006F8F72B63000FFF7FDFC0400FFF7DEFC45
:10129000574BF569C318802029004001019301F0E4
:1012A00039FD01386843019B1818844241D1FFF78A
:1012B000CDFC4F4BC3180193FFF7C8FC4C4BC01833
:1012C000019B834239D1DC172405240D1C193223DC
:1012D00002AD24130293012228006C60AC6007A9C0
:1012E000FFF72BFC6B69DBB26B61002B1BD1FA2182
:1012F000343302933F4B890018686C60AC6001F096
:1013000009FD0122E86007A92800FFF716FC6B69B8
:10131000002B08D135330293012228006C60AC60A9
:1013200007A9FFF70AFC079BDBB2002B05D0FFF7EC
:10133000CFFE002CBBD06319BDE7002480253369A4
:10134000F268ED009B18013B1C70F26894423ED39A
:1013500000233375B36162B67C6D002C2BD0264D13
:10136000635D002B0FD0A0680100FFF7F7FB00289A
:10137000DDD180222100606852001431FFF71AFC91
:101380000028D4D160551D4D635D002B13D08526F8
:10139000B600A0590100FFF7E1FB0028C7D12100EA
:1013A0008022A059153100025200FF31FFF702FCE4
:1013B0000028BCD16055B86ABFF34F8FBFF36F8F61
:1013C00072B6FFF747FE62B601200DB0F0BD121BEA
:1013D000AA4200DD2A003169019B09191819FFF79B
:1013E000E9FB0028A3D18023DB00E418ADE7C04669
:1013F00000F0FFFF080000102202000021020000A0
:1014000010B504000121FFF725FF2000FFF700FEC3
:101410001021F0B5037EC26899400D0012680400E7
:10142000106885B005400095014226D09800130051
:101430002C331B1818681300A57E1833AD005D19F6
:101440002E68657EAD005B191B68834215D9236940
:10145000B84D5F06BF0FBF007F591F252B401B3DB6
:101460009D40EB59002B02D0116005B0F0BD936890
:10147000984217D81B1A032BF3D9E07E0D2801D907
:1014800000F073FC01F0D2FC110034003700410081
:101490008C0128025202E70226033A03EA031104F0
:1014A0003F04500401339B19E4E7E368A17E1D6803
:1014B00001238B402A681A4206D10523AB60FF2224
:1014C000E3681B681A60D0E72B008A0018339B186A
:1014D000A62252011A6028000322FFF723FD0623EB
:1014E000217EE3760A338B402A681A42C5D1E6E7AB
:1014F000009B002BE3D0220000235832236313808B
:10150000FF22E362013362652365E368A17E1D6803
:101510008B002E001836F618874B3768032233608D
:101520002800FFF7FFFC009B002B00D01AE1626D42
:10153000002A05D0210058310888103303430B805E
:101540000021256BE1620631236DE176072D00DC79
:1015500081E0002B01D0002A1FD0220080235832C6
:1015600011880B431380754E22005C321378002BD8
:1015700005D0230001215E33197000231370E36846
:1015800081221D68217E2800FFF7BCFCA37E183550
:101590009B00013EE818066091E72C22236C1B7823
:1015A0009343902BD9D1A06803685B6B9847854221
:1015B00051DC236C1979DA78090211435B7949BA55
:1015C000A26889B27F2B74D94D424D41506BEDB268
:1015D000031E04D003681B689847C343DB0F1D43F9
:1015E000A3681B6B1B7D5B0701D5002DBBD020259D
:1015F000206C002302782A4212D121680E787240B2
:10160000AA439A420CD1226B013A0133934203DA86
:10161000C65CCD5CAE42F8D09B1A5A425341DBB255
:101620006268002A4BD000232200E36258321188FE
:1016300040330B431380A36840211B6B1A7D0123A9
:101640009207D20F5340226C12780A40134349D0BC
:101650000023E36287E7236B012B00D07DE72200A4
:1016600021005C32107858310B8800286CD00020A3
:10167000107010229343E26C0B80824202D0636BA5
:10168000CC2B12D0E169236A994203DA616AA36A1A
:1016900099422FDB002A02D0636BCC2B05D02200AD
:1016A00080235A3211880B4313802000FFF7CBF8B8
:1016B00059E7908A401A43425841C5B290E7CC217D
:1016C000E162002BB7D1236B216C9A4205DB63608A
:1016D0002300002258331A80ADE7895C23689954AF
:1016E0000132F0E7E36A002B00D13CE70523144EFA
:1016F000E37639E72300200021005A335D305E3164
:10170000002A0DD0626BC02A01D0002A08D1102215
:101710001D880C4E2A431A80012303700B7023E7A7
:1017200004221D882A431A800023037001330B70A2
:1017300019E7C04640340000FEFF0000F01300002F
:10174000B3050000A13C0000626BCC2A06D00C2A35
:1017500004D0C02A02D0002A00D0FEE69022934393
:101760000B8000E72B00217E2C3388001B18AA6811
:101770001B68934211D8D31A0233AB60CC4B812241
:1017800033602800FFF7BEFB0423E3760023636386
:10179000A36401336364E36491E60132D219EAE79A
:1017A0000120E368A17E1B6888401D682A00024072
:1017B000054266D0890018335B1819680131A36CA3
:1017C0001800443088426DDA80276833A3647F00B4
:1017D0001E00606C44364500B14202DD2436B8423A
:1017E00055DD21338B4209DA80235B00984205DC0A
:1017F000200058300688FC3B334303806564002A90
:101800005ED0636B256BDAB26263002D08D19B0753
:1018100006D022008023583211885B000B431380CE
:10182000A06803685B6B9847854242DA236B226CA1
:10183000616B581C2063D154636D626B53406365C8
:10184000E36C002B05D1210008225831088802439F
:101850000A80226DA17E134023650323E376E368AB
:101860008A001D682B0018339B18ED2228001A608F
:10187000EC3AFFF757FB81222800217EFFF742FB5D
:101880001DE6217E2C3389005B18196897E7636B8E
:10189000A66403436363E36C656458424341E364B5
:1018A000330095E720000423583005882B4303803C
:1018B000A5E722002023583211880B431380BFE78D
:1018C0008223DB00994200DCF9E522000123583233
:1018D00011880B431380F2E5009B002B04D00023FA
:1018E000E3620223E376C8E5009B6821A363E36813
:1018F0001D68637E2A009B001832D3181960A17EF0
:1019000028008B00D2188A2313600322FFF70AFBFA
:1019100081222800217EFFF7F5FA009B009A2363BD
:1019200023005A331A800723E376C8E5009B002B77
:10193000D7D126005E363378002B07D0E269236AC0
:101940009A4208DA626AA36A9A4204DA23005F3391
:101950001B78032B08D9220080235A3211882000DB
:101960000B431380FEF76FFFE26B002A5AD00F2162
:1019700053790B400833A3633378002B0BD020231B
:101980001178194207D099431170A26BE16B013AAB
:10199000885C43408B54E36B216A1D7824231D40EF
:1019A000243D6B1E9D41434B6D421D400023A235DB
:1019B000FF35994203DDA26AD3179B1ADB0F3278F9
:1019C000002A00D1D3E1E2690132914214DD002BFB
:1019D00012D0636AA26A013393420DDA23005F33A7
:1019E0001B78032B08D083203A21334BFF311B682F
:1019F000584301F015FA4D19E3681868637E020038
:101A00009B001832D3181D60A17E22358B00D2189E
:101A100015600322FFF786FA220000235A3223635F
:101A2000138080E7E36881221D68217E2800FFF78C
:101A300069FAA67E280031000222FFF773FA1835F2
:101A40001E4BB600AE193360637E9B00ED181C4B35
:101A50002B60012368E7E368A17E186801238B40AF
:101A600002681A422ED10300227E2C3392009B186A
:101A70000200657E1832AD0055191B682E683700CC
:101A80001E3F9F4208D9236B002B02D02000FEF797
:101A90000DFE0B4B2B6024E79E4206D9806889001F
:101AA0000130223352182860136008233CE7C046F7
:101AB00077040000C7FEFFFF60000010FEFF00007B
:101AC000FFFF000008232200E3765A321188183302
:101AD0000B431380E36A002B04D1236BE26B591C88
:101AE0002163D35C80200922012163634000013A15
:101AF000002A25D1012363640833E3760126E368D5
:101B0000A27E1D68330029689340080018400190A8
:101B100019427FD12B00227E2C3392009B181F6824
:101B2000022F00D8CBE46821380001F079F93D2973
:101B30000DD82000FEF7BAFD2000FFF78BFABEE4B7
:101B4000636B194201D0434063634900CFE7637E72
:101B500018359B00ED182B68073BBB4200D8AEE45C
:101B60002000FEF7A3FD2300019A58331A80FF23BB
:101B70006365E36A2665E664002B31D0E262A37EEA
:101B800068210193E3681B681E000293019B1836CD
:101B90009D00751928680238C01B01F0BBF8636C02
:101BA0003A0001300341683AA264626B591E0A4050
:101BB00094460A21636462635B10002B1FD1683373
:101BC00059437B1ECB1803222B6001990298FFF723
:101BD000A9F9637E684A9B00F3181A60042381E622
:101BE000226B013A2263226B9A42C8DDE26BD15C20
:101BF000226CD154626D01334A406265F3E762465C
:101C00000139134204D0E06C020050425041E064BC
:101C10005B10D2E78023616C9B0099421EDC682038
:101C2000013B676BFF3B4E00394201D099420FDD0B
:101C30008021637E18359B0066648900EB188E4214
:101C400009DD4D4992000138AD181960286036E46D
:101C500031006830E7E701002339F3E7216BA26B1D
:101C6000E368914217DAE26A002A14D10732E27679
:101C70001D68627E2B00920018339B188B22520045
:101C80001A603A23FF33A27E18359200013BA81850
:101C90000360FFF714FC0B22E2761D68217E28000A
:101CA0007532FFF72FF94523EDE7E36AE168002B72
:101CB0000BD00023E3620633E3760D68812228000F
:101CC000217EFFF71FF92D4BDDE7230001225C3356
:101CD0001A700C23E3760D68A17E2800FFF722F925
:101CE00023005E331B78002B07D023005D331B7865
:101CF000002B04D0636A01336362214BC3E7E369BD
:101D00000133E361F9E70D23E376E36881221D687F
:101D1000217E2800FFF7F6F8A37E18359B00ED180A
:101D2000184B2B60FFF7CBFB009B002B00D0D8E5B6
:101D3000230001225E331A70009A023B1A702200BF
:101D400008235A3211880B4313800623E376E36895
:101D5000A17E18688A00030018339B180A4A1A608B
:101D60000322FFF7DFF8FFF7AAFBFFF7B1F9002B1B
:101D700000D033E640E6C046FFFF0000F01300004D
:101D8000B20500009C060000EF13000010B5024BE6
:101D9000D868FFF73DFB10BD60000010802070B5D3
:101DA0004004FFF77DF9FFF745FA1F2101220A4B96
:101DB00080241B68094D19408A405B0608499B0F27
:101DC0009B005958A4039000AB6823405E427341C6
:101DD0005B4213404350F7E70000001010E000E0C2
:101DE0004034000010B50400782101F065F92000AE
:101DF00010BDF7B50700FEF7D8FC0023BC6A3B49CD
:101E00006360E363E3616362A363A365E365E3681F
:101E1000374A8B424BD1C421FF25364889004258AE
:101E2000AA434250012635001A793349C86F0192FE
:101E3000073295402A001D6800230243CA6731001B
:101E4000EB636B61AB62637E6A6F99400B00134377
:101E50006B676B68294933436B60294B186800F046
:101E600059FF0138E8602000FFF7F4F8254BAB601C
:101E7000637E9E4033001E00EA6B16401342FAD187
:101E8000E0216069C901FFF747F91F492069FFF7A1
:101E900043F9FF231F222B60019B103313401E3A8E
:101EA00011009940134B1960FE633A64F7BD1100AD
:101EB00018318B4206D1C4210E4889004258134D77
:101EC0002A40AEE7110020318B4205D1C4210948D8
:101ED000890042580E4DF3E728329342A2D1C42123
:101EE0000448890042581202120A9AE7F0000010D2
:101EF000E000001000E100E00480044040420F00D8
:101F000008000010FFFF000020200000FF00FFFF7E
:101F1000FFFF00FF10B5838A0400002B03D1036884
:101F20000749DB6898472000FFF763FF2300012281
:101F30005C331A70034B1B6863662323236610BD52
:101F4000FFFF000060000010F7B501930368040074
:101F5000DB68006D009303681500DB6E0E00984788
:101F60000778206D3F020368DB6E98474178009B3D
:101F70003943200098472E22236B00271A75206BC7
:101F800003685B69984701220770236B5A75206DBF
:101F900003689B6C9847FF230370206D03685B6C9C
:101FA00098470770206D03681B6A984733120370C7
:101FB000206D03685B6A98470670206D03689B6A12
:101FC00098472B120370206D0368DB6A98470570F1
:101FD000206D03681B6B9847019B0370236D1F7571
:101FE0009F61F7BD10B50400FFF7AEFF2000FFF7BB
:101FF00091FF10BD10B50400431DDA7F002AFCD10B
:102000000132DA770F23E169A0694A791A40073271
:1020100001F033F82000FEF7DDFB10BD70B5037949
:102020000400002B3CD0431DDB7F002B38D14379CB
:10203000002B35D01C4DC2682B689B1A1B4A93425B
:1020400001D9FEF703FD6379012B12D1A31DDA7FBD
:10205000012A25D1DA7F012A22D1013262712000C2
:10206000DA77FFF7C7FF0023A3722B6823612B6881
:10207000E3606379022B13D122692B689B1A0C4A07
:1020800093420DD90A23E3562000022B09DCFFF707
:10209000B1FFA37A0133A3722B6823612B68E3603D
:1020A00070BDFEF7D3FCFBE7600000106F17000067
:1020B000B70B0000F0B5040085B0FFF7AFFFA36ACF
:1020C0005A68002A37D0DA6B002A34D1DA6A002A3B
:1020D00031D1226B127D52072DD5C0201D685B685F
:1020E0002A79DBB20293EB7812021A43AB79EE79CC
:1020F0001902800001400E43F021A02789003140E1
:10210000BF00B94209D000DD6BE0080080278138AC
:10211000FF38B84380B2002865D18EB2002A64D15E
:1021200023682A009F6931002000029BB84723687A
:1021300020001B6A9847E06A00283AD0C449FEF79D
:10214000EBFFE26AC34D53069B0F9B0058591F23B8
:102150001A401B3B93401B58666C5A1E9341BE4A63
:102160001800216C1268B34200D17CE1E263636421
:102170000800002807D1002905D07F23226B5B428D
:10218000117D4B401375C021E06AC901FEF7C4FF01
:1021900001201F220100E36A1A409140226B5B0676
:1021A000127D9B0F02409B00EB58013A0A408900C8
:1021B000CA50A36ADA6B002A11D1DE6A002E0ED152
:1021C000230048331B78002B09D0250049352A7895
:1021D000002A00D153E12000FEF738FC2E7005B034
:1021E000F0BD814299D0B6B298E7697952BA92B2FD
:1021F0007F2908D90299236800915F6931002B007B
:102200002000B84793E7A18A914200D08FE73C2293
:1022100018009043AA78697812020A4357BA42B26A
:10222000B9B2002A00DB8CE06579802815D08128BE
:1022300038D0DA0762D4012D00D878E7E2888A42E4
:1022400000D074E708210F2061569B0803408B42A1
:102250003BD02000FEF7FAFB69E7002D12D0013DCC
:10226000012D00D963E7E3888B4200D15FE77A4A0A
:1022700020009388013393800A0000238121FEF718
:10228000C8FB54E7236820009B6A9847724BE7809D
:102290001B682581E3606379012B00D147E70123A7
:1022A000637144E7013D012D00D940E7E3888B428B
:1022B00000D03CE70023684A6371938821680133AA
:1022C000938020008B6A984731E70026624B0131EA
:1022D0001B680140A71D2172E360E51DFE77EB7FBF
:1022E000B342DCD0216A4A7902400732E06900F04B
:1022F000C4FEEB7FDBB2FB77EE77CCE7FF2B00D1A0
:1023000015E7002D00D112E70822A2569B061B0FED
:10231000934200D00BE7E3888B4200D007E70A2303
:10232000E3562000022B95DC022D93D1FFF762FECD
:10233000A37A0133A372484B1A681B682261E360D9
:10234000F5E6032B21D8671DFB7F002BFCD10C2267
:102350000133FB772878A36910405C3A02431A7076
:102360000A0A1971DA7022680093D36931009C4619
:102370002A0020006546029BA847002803D02000C1
:10238000FEF728FAD3E6F877D1E6E2888A4200D051
:10239000CDE66179002900D1C9E69B080921180022
:1023A0000F27615638400300884243D1C2212000E4
:1023B000FEF72FFB637A01333B406372264B1B68A9
:1023C000E360A31DDB7F002B2DD12300E7692533BC
:1023D00003930123039A3100137023680097DB698C
:1023E0002A009C4620006646029BB04700281ED06B
:1023F0000C232A781A405C3B13433B70E3881A0A8B
:102400003B710823FA70E269E356974202D00F222B
:10241000013313403C21BA799B008A431343402285
:102420001343BB7183E62300276A2633D0E7039B5F
:1024300018707CE60139084D394088420ED1C2211E
:102440002000FEF7E6FAEB880133EB802B6876E795
:10245000101000004034000060000010C321200074
:10246000FEF7D7FAF2E7E36B002B00D180E6D21A31
:10247000322A00D57CE600232064E36379E6E16C30
:10248000002900D1ABE6054B1B685B1A00D5A6E618
:10249000236820001B6BE2649847A0E660000010F0
:1024A000F0B50379050087B0002B00D1D3E0FFF72A
:1024B00001FEAB6ADA6B002A00D0CCE0DB6A002BAD
:1024C00000D0C8E02B005C331B78002B00D1B5E0B6
:1024D0002B682800DB6A9847002800D1AEE0614BEA
:1024E0006A6E1B689B1A2A6E9A4200D99AE0AC6BFE
:1024F000236820005B6998470190002800D191E093
:10250000236820001B69984703780293002B00D1B1
:1025100088E01900206900F079FD21618BB20093F9
:102520006B461B880393039A029B934203D823694B
:102530000133236176E0236800999B682000984767
:10254000037804936368586B03689B689847060098
:10255000037801365B00C3180593059BB3421CD971
:102560007378009A9A421BD163683778586B0137A9
:102570000368DB689847874212D86368586B036822
:102580005B68984733785B00C01882784378120202
:102590001A4352BA92B2002A04D1009B0133BEE71B
:1025A0000236DAE74421049B0B408B42F5D101202F
:1025B000039B01995B08CE18C95C039B034200D0C2
:1025C0000909CB439B07E8D104200B0003400142DB
:1025D00043D06368581DC77FF9B2002FFBD1013784
:1025E000C777BC209B6918701A71100AE122D87055
:1025F0005A719971D9716068FEF7ECF8009BE3603D
:10260000009B07219A0004231A40914033788B43A2
:10261000012191400B433370009B01332361114B27
:102620001B686B66FA210F4A6B6E1268C900D21ADA
:102630008A4203D3FA2292009B186B662B6D1B7D96
:10264000002B08D06B79002B05D1064B0221280006
:102650001B68FEF7FFFD07B0F0BD20000099FEF7F4
:1026600017F9CDE760000010F0B51F00036885B0D2
:10267000DB6901920E0004009847B04206D1012F99
:1026800004D1019B1B78237505B0F0BD6368200061
:10269000F51A02932368DB699847A84206D220699D
:1026A0003A000199401900F0E8FCEDE77B1903932B
:1026B00023682000DB6998477B198342EFD3039B93
:1026C000AB42E1D023682000DB699847029B019A66
:1026D0009B1BD3185B5DA84202D123750135EEE741
:1026E00022695355FAE7F0B585B0019303680E00EF
:1026F000DB69040017009847B04206D1019B012B0B
:1027000003D1237D3B7005B0F0BD63682000F51A4E
:1027100003932368DB699847A84209D3019B2000F3
:102720005B1902932368DB699847029B834212D2AC
:1027300021693800019A491900F09FFCE3E72368FA
:102740002000DB699847A84209D1227D039B9B1B8F
:10275000FB185A550135029BAB42F0D1D3E72369F0
:102760005A5DF3E7F0B589B005000C001E00181E95
:10277000069254D04B1E9B190020049399424ED8C8
:10278000686D00280CD0036821009B68984705906D
:10279000686D049903689B689847059B002B20D1BE
:1027A000069B039301230593286D21000368049A77
:1027B0001B699847002867D021002800049EFDF778
:1027C00079FE0E9B01361B78361B3200002B50D051
:1027D0000100039800F051FC012020E0039B0693C8
:1027E000CEE700280BD12700A3190793069B1B1BDC
:1027F000DB190393079BBB4219D11C00D4E70E9A47
:10280000686D12780368002A0BD0002200925D6880
:1028100021003300069AA84743425841C0B209B08C
:10282000F0BD1D6821003300069AA847F4E7686DE3
:10283000390003689B68984700280ED00E9A686D8F
:1028400012780368002A0ED0002200925E683900D8
:102850000123039AB047002801D03C00A4E70023DD
:1028600001370593C2E71E6839000123039AB04778
:10287000F1E7039900F001FC01232A6D1375424B27
:102880001B6832339361A7E7286D21000368DB687A
:102890009847002816D02B6D210028009E68FDF770
:1028A00009FE0E9B01361B78371B3A00002B1FD008
:1028B0000100039800F0E1FB039B3400DB19039354
:1028C00000230593286B21000368049A1B6998472D
:1028D0002B6B002817D00E9A049B12780133286BBB
:1028E0001B1B002A44D12100039AFFF7BDFE73E7AA
:1028F000039900F0C2FB01232A6D1375224B1B685C
:1029000032339361D8E71A681800D269904784423D
:1029100006D1286B0368DB699847049B8342DAD0B1
:10292000286B21000368DB689847002812D0286BC9
:102930000E9B87681B7801373E1B002B1DD0330090
:102940002100039AFFF7CFFE039B3C009B190393E2
:1029500000230593049B5E1C059B361B002B03D1B3
:10296000049B9C4200D839E773425E41F0B256E7BF
:102970002100039AFFF7B7FE2EE733002100039AE8
:10298000FFF772FEE0E7C0466000001030B50F248C
:10299000002585B06C4425700094FFF7E3FE05B078
:1029A00030BD30B50F24012585B06C4425700094EE
:1029B000FFF7D8FE05B030BD80B500AF014B180061
:1029C000BD4680BD2C340000F0B5924B924C85B0D2
:1029D0002361012302222377904B0027A361631D0B
:1029E000DA778F4B01322362230028331A71FA22DF
:1029F0008C4B9200A3628C4B8C495A608C4A8D4858
:102A00001A60FF335F768C4D2775FEF785FB8B4987
:102A10008B48FEF781FBA760FFF7CEFF20631C20E9
:102A200000F04EFB81235B008360476006002B00B3
:102A300004202833FF303360F06000F053FB0300C4
:102A4000021DFF321F7001339342FBD10323B36198
:102A5000B3683061033BB360F368B782033BF36054
:102A60002B00543333602020802700F029FB754B66
:102A70007F00803583604760C760056004003800D0
:102A800000F030FB00220300C1191A700133994293
:102A9000FBD120612275A2612000E761FEF7F2F808
:102AA000E268011E206900D1ACE000F0E6FA0025E2
:102AB000654B182023602575A56100F001FB634B71
:102AC00001900393624B039A836001235B42C360CE
:102AD000604B426003600561456108205E4F00F075
:102AE000EFFA5E4B039A03605D4B42603B615D4BC6
:102AF00002901720BB617D61FD613D6200F0F2FA3A
:102B00000200030017321D7001339A42FBD1B862F4
:102B1000172000F0E7FA02000300002117321970B5
:102B200001339A42FBD1F862172000F0DBFA020071
:102B3000030017320021197001339342FAD14A4B36
:102B4000386360203B6100F0BBFA484B1037C3602C
:102B5000474B87600361474B0500436100230383B4
:102B6000172000F0BFFA01000300002217311A708D
:102B700001339942FBD103216B7E286402330B4061
:102B8000A868AB76EA763C4B6A6929625A600368AA
:102B9000A9625B6B9847070000F0A4FA00220300CB
:102BA000013F002F31DA28602B48029B010043646B
:102BB000002358310B80314A2F49C2630A6002005A
:102BC0006C32C364C3654366836613702333036743
:102BD0000368019A4367019B85638364284B0664FD
:102BE0000361031DDA670300029A0833C5600466B7
:102BF0008667C467DA672349234A103000F036FA43
:102C000005B0F0BD00F006FA51E71A70013F01333C
:102C1000C7E7C04600C00040E000001000000140CF
:102C200000400140008001401401001000103C00F1
:102C3000C834000047827900C034000000604000C2
:102C400048828100FF010000B836000070000010CB
:102C5000E1100000B835000060000010D835000019
:102C6000F0350000FFFF000024360000F8000010DF
:102C700028C20100298269000000001040825C0027
:102C800064360000210300000C0000108E2120207B
:102C90001A4B89005A5882435A50002271391A62DD
:102CA000FF39C04601390029FBD101221A645A6458
:102CB00059645A64596C1142FCD023228E21802021
:102CC0009A6089005A5882435A500122D9681142A9
:102CD000FCD00321196700215A6759675A670122FE
:102CE000596F1142FCD09A670549064BD967064BCC
:102CF0001A60064B1A60064B1A6070470080044049
:102D00005F000100048004409480044098800440E7
:102D10009C800440002243088B4274D303098B42F9
:102D20005FD3030A8B4244D3030B8B4228D3030C9B
:102D30008B420DD3FF22090212BA030C8B4202D33D
:102D40001212090265D0030B8B4219D300E0090A65
:102D5000C30B8B4201D3CB03C01A5241830B8B426E
:102D600001D38B03C01A5241430B8B4201D34B0357
:102D7000C01A5241030B8B4201D30B03C01A5241BC
:102D8000C30A8B4201D3CB02C01A5241830A8B4241
:102D900001D38B02C01A5241430A8B4201D34B022A
:102DA000C01A5241030A8B4201D30B02C01A52418E
:102DB000CDD2C3098B4201D3CB01C01A5241830942
:102DC0008B4201D38B01C01A524143098B4201D37C
:102DD0004B01C01A524103098B4201D30B01C01AA7
:102DE0005241C3088B4201D3CB00C01A5241830821
:102DF0008B4201D38B00C01A524143088B4201D34E
:102E00004B00C01A5241411A00D2014652411046AD
:102E10007047FFE701B5002000F006F802BDC0468C
:102E20000029F7D076E770477047C04603B4714673
:102E3000490840004900095A49008E4403BC7047C4
:102E400003460B437FD4002243088B4274D303090B
:102E50008B425FD3030A8B4244D3030B8B4228D3AC
:102E6000030C8B420DD3FF22090212BA030C8B42D2
:102E700002D31212090265D0030B8B4219D300E072
:102E8000090AC30B8B4201D3CB03C01A5241830BF7
:102E90008B4201D38B03C01A5241430B8B4201D3A7
:102EA0004B03C01A5241030B8B4201D30B03C01AD0
:102EB0005241C30A8B4201D3CB02C01A5241830A4A
:102EC0008B4201D38B02C01A5241430A8B4201D379
:102ED0004B02C01A5241030A8B4201D30B02C01AA3
:102EE0005241CDD2C3098B4201D3CB01C01A52410A
:102EF00083098B4201D38B01C01A524143098B4293
:102F000001D34B01C01A524103098B4201D30B017B
:102F1000C01A5241C3088B4201D3CB00C01A5241A0
:102F200083088B4201D38B00C01A524143088B4265
:102F300001D34B00C01A5241411A00D201465241FE
:102F4000104670475DE0CA0F00D04942031000D31D
:102F50004042534000229C4603098B422DD3030A72
:102F60008B4212D3FC22890112BA030A8B420CD382
:102F7000890192118B4208D3890192118B4204D3AB
:102F800089013AD0921100E08909C3098B4201D32B
:102F9000CB01C01A524183098B4201D38B01C01A65
:102FA000524143098B4201D34B01C01A52410309DC
:102FB0008B4201D30B01C01A5241C3088B4201D38B
:102FC000CB00C01A524183088B4201D38B00C01A38
:102FD0005241D9D243088B4201D34B00C01A52410F
:102FE000411A00D20146634652415B10104601D39C
:102FF0004042002B00D54942704763465B1000D326
:10300000404201B50020FFF70FFF02BD0029F8D0B4
:1030100016E7704703008218934200D17047197079
:103020000133F9E770B500260C4C0D4D641BA4105C
:10303000A64209D1002600F07DFB0A4C0A4D641B14
:10304000A410A64205D170BDB300EB5898470136D5
:10305000EEE7B300EB5898470136F2E7403700003F
:10306000403700004837000040370000030010B52B
:103070000800190000F012F810BD002310B59A42A4
:1030800000D110BDCC5CC4540133F8E70023C25C0E
:103090000133002AFBD1581E7047FFFF10B5040012
:1030A00004481300002804D00A000220210000E098
:1030B00000BF10BD0000000010B500F017F810BDF3
:1030C00010B5041E00D10134200000F041F80028A2
:1030D00000D010BD00F00EF8002801D100F010F86B
:1030E0008047F1E710B5FFF7EBFF10BD10B500F01A
:1030F00039F810BD014B18687047C0463002001007
:10310000FEE7FFFF06480749091A8B10C90FC918C7
:1031100010B5491003D0044B002B00D0984710BDC8
:10312000600000106000001000000000054B10B5AA
:10313000002B03D00449054800E000BFFFF7E2FF81
:1031400010BDC046000000003402001054370000DB
:1031500010B5034B0100186800F030F810BDC046F0
:103160001000001010B5034B0100186800F0CAF8F9
:1031700010BDC0461000001070B50F4E0D00316834
:103180000400002902D100F0A9F8306029002000D5
:1031900000F0A4F8431C03D101256D42280070BD46
:1031A0000323C51C9D43A842F8D0291A200000F033
:1031B00095F80130F2D1EFE74C020010F7B5032289
:1031C000CB1C9343083305001F000C2B34D20C2773
:1031D000B94233D8280000F071F8374E33681C002C
:1031E000002C2FD139002800FFF7C6FF0400431C34
:1031F0005FD134680094009B002B4AD1002C52D040
:1032000023682800E3180099019300F067F8019BF8
:10321000834248D123682800FF1A3900FFF7ACFF2A
:10322000013040D02368DB19236033685A68002AD4
:1032300033D1009B336019E0002BC9DA0C232B60DB
:103240000020FEBD2168C91B20D40B290AD9E21930
:103250002760A34204D1326063681160536005E0C7
:103260005A60F9E76268A3420ED13260280000F08C
:103270002DF8200007220B30231D9043C21A9842DC
:10328000DFD01B1AA350DCE75A60EFE72300646825
:10329000A6E7009C63680093ADE71A005B68A34251
:1032A000FBD10023DAE70C2328002B6000F00EF896
:1032B000C6E70760DAE7C0465002001010B50248C2
:1032C00000F01EF810BDC0465402001010B50248B0
:1032D00000F017F810BDC04654020010002370B56E
:1032E000064D040008002B6000F056F8431C03D183
:1032F0002B68002B00D0236070BDC0465802001020
:103300007047704770B505000C1E10D0043C236850
:10331000002B00DAE4182800FFF7D0FF1D4A1368DD
:10332000002B05D1636014602800FFF7CFFF70BD4C
:10333000A34208D9206821188B42F3D119685B6831
:1033400009182160EEE71A005B68002B01D0A34248
:10335000F9D911685018A0420BD1206809185018EB
:1033600011608342E0D118685B68411811605360B6
:10337000DAE7A04202D90C232B60D5E72068211898
:103380008B4203D119685B6809182160636054603F
:10339000CAE7C0465002001070B50D4E04003568F3
:1033A000002D01D10B4D3560032303349C432C19B0
:1033B000200000F011F8002802D13460280070BD10
:1033C00000F016F801250C236D420360F6E7C046B5
:1033D0005C0200106002001003000448002803D0C3
:1033E00000228342524110007047C0460000000096
:1033F000014B18687047C046100000104243553119
:1034000000010102030406080A0E0E0048656C6CF8
:103410006F20576F726C6420766961204B4E582084
:10342000646F776E6C6F61642100FFFF214156501D
:1034300021403A6578446F776E6C6F302E313000E2
:103440000000005000000150000002500000035036
:1034500026C233004782790061C2340F64C279000A
:103460000300040007000B000C000D001300140003
:10347000180019001A001D001E001F002000240063
:103480002500280029002A0005000E001B00260048
:1034900002000A00170023001000110000000800BD
:1034A0000900150016001C002100220027002B0037
:1034B0000F001200000000000000000000000000EB
:1034C0000000000000000000C50C0000E70C000038
:1034D000B10D0000990E0000AF0E0000310D00008C
:1034E0000000000000000000F90A0000030B0000CB
:1034F000190B0000890A00009D0A0000000000006E
:1035000000000000000000000000000000000000BB
:1035100000000000F90A0000030B0000190B000076
:10352000890A00009D0A0000D3030000D9030000AF
:10353000DF030000E30300000000000000000000C3
:10354000B70A0000C10A0000D70A0000890A00007B
:103550009D0A0000000000000000000000000000C4
:10356000000000000000000000000000000000005B
:10357000000000000000000000000000000000004B
:10358000000000000000000000000000000000003B
:10359000000000000000000000000000000000002B
:1035A000000000000000000000000000000000001B
:1035B000000000000000000079070000E90600009C
:1035C000A1070000290900002507000049070000A5
:1035D0000000000000000000410E0000770E000017
:1035E000850E0000BB0E000000000000000000007F
:1035F00000000000000000001D2000002904000061
:10360000AB07000000000000000000002D040000D7
:1036100000000000000000007D0A00000000000023
:10362000000000000000000000000000B5200000C5
:1036300029040000F31D000000000000000000004D
:10364000310400005F040000470F00007D0A000005
:1036500000000000111000005B04000000000000EA
:103660000000000021030000E51D0000A12400006F
:1036700067040000151F0000E5040000EF070000CC
:10368000030500005F040000470F00007D0A0000F2
:10369000F5030000011400005B040000F1030000CA
:1036A000E70300008D290000A3290000E51F0000AA
:1036B0000000000000000000B70A0000C10A00007E
:1036C000D70A0000890A00009D0A000039030000A3
:1036D0003D03000043030000490300004F030000C6
:1036E000550300005B030000610300006703000056
:1036F0006D03000073030000790300007F030000E6
:10370000850300008B030000910300009703000075
:103710009D030000A3030000A9030000AF03000005
:10372000BB030000C1030000B5030000C703000095
:10373000CD030000F8B5C046F8BC08BC9E467047F3
:10374000C92900002D310000F8B5C046F8BC08BCFE
:043750009E467047DA
:1037540040825C0029826900006CDC0200000000E9
:1037640014000010000000000000000068000000C9
:10377400D000000000000000000000000000000075
:103784000000000000000000000000000000000035
:103794000000000000000000000000000000000025
:1037A4000000000000000000000000000000000015
:04000003000000DD1C
:00000001FF
