:1000000000200010DD000000D700000011150000E6
:1000100000000000000000000000000021DFFFEFF2
:10002000000000000000000000000000D9000000F7
:100030000000000000000000DB0000004507000099
:10004000D5000000D5000000D5000000D50000005C
:10005000D5000000D5000000D5000000D50000004C
:10006000D5000000D5000000D5000000D50000003C
:10007000D5000000D5000000D5000000D50000002C
:10008000D500000061140000D5000000D50000007C
:10009000D50000003507000000000000000000004F
:1000A000D5000000D5000000D500000000000000D1
:1000B000D5000000D5000000D5000000D5000000EC
:1000C000782A0000000000106000000060000010AE
:1000D0003C020000FEE7FEE7FEE7FEE7F8B56B49ED
:1000E0006B4B8B4200D2B6E000206A498B4200D2B3
:1000F000BFE002F0B1F802F069FAFA21664F890018
:10010000386802F0EDF800F013FC644800F00CF9D8
:10011000C0216348C901A026802500F045FC0023CA
:10012000F605AD00735101F0C5F9C0215D48C90164
:1001300000F03AFC00235C4C636001F0BBF98023C3
:10014000735101F0B7F940235848636000F0ECF8B0
:10015000574800F0E9F83A22564E3000336D20300F
:100160001A75336D393A5A7501F00CFD524800F09A
:10017000DBF8524B5248B38600F0D6F8514B524D43
:100180005B7E002B01D000F0F6FA5049504800F099
:100190000BFC504800F0C8F84F49504800F004FCF0
:1001A0004F4800F0C1F8BFF34F8FBFF36F8F80222D
:1001B0004C4B9203DA6780234B4A5B01D16F4B4C67
:1001C0000B43D36701224A4B1A609A32E260494AD4
:1001D0003868926F1968504302F082F8962100093E
:1001E000C90102F07DF8030A63601B23C0B22060DE
:1001F000E360143BA36000230121236162682800AF
:100200000A436260AB60EB602B616B6100F008FA3F
:1002100001226369134237D1C520374B800019583A
:10022000364AFF351140C02212020A431A5080227A
:1002300092031A60012332486B7600F075F800F0E3
:10024000A5F8304800F070F83000203001F0FAF9DD
:1002500001F02AFDF8E700221D685F689868BE1863
:10026000AC18904201D80C333BE724680432346068
:10027000F5E700221E685C68B518944201D808337F
:1002800034E728600432F7E72368C1E7CC000000B8
:10029000C0000000D40000000C0000107027000017
:1002A0000702050006027000FC00005083270000D2
:1002B000AC270000E0000010CC270000FE11000079
:1002C000EC270000530200105401001000604000B1
:1002D000608234100A28000030103C0061C2340FE4
:1002E0002328000004E100E0048004400080004076
:1002F000988004400080044000E100E0FF00FFFF20
:10030000502800006F28000003000168002081428F
:1003100006D0044A1268521A824201DB186001308A
:100320007047C04660000010034A0378002B00D1DC
:10033000704701301370F8E70000FF4F7047064820
:1003400010B504300468FFF7DFFF0123621E9441FB
:100350005840204010BDC046600000100022034BF2
:100360005A601A7203325A817047C046600000100A
:100370000022044B1A735A731A61034B013A1A8014
:100380007047C0466000001000000010002210B549
:10039000064B9A60DA601A615A61054B01329A7015
:1003A000DA70FFF7DBFFFFF7E3FF10BD5401001029
:1003B00000000010006962307047006963307047C8
:1003C00060207047612070478182704700797047D4
:1003D000002070470120704701207047E0239B00F8
:1003E000994210D10300012248331A704379591EF3
:1003F0008B41010049310B70054B1B681900FA3124
:10040000FA3302D0C16400207047C264FBE7C046E3
:1004100060000010172070470022836A5A607047FE
:10042000C36A002B09D102005F3213785A300133BE
:100430001370402302881343038070470023421D3A
:100440004371D377821DD377C21DD37701225242E5
:10045000028102320271034AC380C3609382D38255
:100460007047C046600000100222431D10B5DA77C5
:100470000F2381694A791A40036807325B6A9847FB
:1004800010BD70B50500C36B04005A35002B13D0A6
:100490000022C26380682B88411DCA7782699279E5
:1004A0007F2A09D91B060ED50B23C356022B0ADC63
:1004B0000133C372FFF7D8FF0023E3616362A363D4
:1004C0002B80E36570BD0023C372F5E7F8B50C001F
:1004D000411DCD7F002DFCD10135CD774021160A7D
:1004E00081278569D2B20C4203D09B002343194374
:1004F000CFB2B0232B70503BEE70AF712A716B718D
:10050000FFF7B2FFF8BD0B4A10B5938A0400013320
:1005100093824379002B01D0002343718121200075
:10052000E2880023FFF7D2FF236820009B6A9847E8
:1005300010BDC046600000100023821D0730D37735
:10054000C3777047426803000020914203D39B6841
:100550008B424041C0B27047030010B50020914269
:1005600006D85C68A14203D39B6893424041C0B265
:1005700010BD43680069C91A4018704742680300FB
:10058000891AC2680020013A8A4201D31B69585C6B
:1005900070474368C268C91A10B5013A4C1C002361
:1005A000944205D803695A5C1B5D120213431BB2C7
:1005B00098B210BDF8B505000C0000268F18BC429B
:1005C00001D13000F8BD2B68217828005B6898477E
:1005D00001343618F3E70200FF32527E0300101E8A
:1005E0000DD018695A6990420AD10C4A50698006A8
:1005F00006D511600223012051680B4353607047F8
:100600007F205A690132024018698242FCD0586941
:100610001818983001705A61004AEBE700800040DA
:100620000300FF335B7E002B03D0026943699A42CB
:10063000FBD1704710B5064CE5212000FFF7CBFF3A
:100640002000FFF7EDFF4022024B5A6010BDC0466C
:1006500054010010FC000050194B30B55A69920645
:1006600007D501694269914209D102215A688A433A
:100670005A6001247F215A6922420DD130BD7F2169
:1006800002698218983212781A6002690132026196
:1006900002690A400261ECE7C268856801320A40DB
:1006A000AA420AD01D68C26882181576C268013253
:1006B000C260C2680A40C260DDE71A68DBE7C04674
:1006C00000800040030070B5FF335B7E002B28D014
:1006D0007F25C3688168C468826801332B409442D7
:1006E0001CD082688218147E82680132826082681F
:1006F0002A4082608B420FD10B4B5B69DB070BD525
:10070000BFF34F8FBFF36F8F8025084BAD03DD67BD
:10071000FFF7A2FF064B1D60200070BD012464425C
:10072000E8E701246442F7E70080004004E100E0CC
:1007300000E100E010B50248FFF78EFF10BDC04693
:1007400054010010024A1368013313607047C04619
:1007500060000010C26883689A4203D08368C018A2
:10076000007E704701204042FBE7C3688068181A8A
:1007700000D58030704710B50A4C2000FFF750FFBD
:10078000BFF34F8FBFF36F8F8022074B9203DA675F
:10079000064A0749D36FFF340B40D36700236376C3
:1007A00010BDC0465401001004E100E00480044084
:1007B000FFEFFFFF0323594310B589B20624802AB7
:1007C00000D1043C07228A408C40836A9343234330
:1007D000836210BD30B5032407254C43A540A240D9
:1007E00043694900AB43134330228A404361C36BE2
:1007F0009343C36330BDF8B50500866ABFF34F8FDE
:10080000BFF36F8F72B6F27E012A05D00023062A4D
:1008100017D1F26B9A4214D1F36880221C68317EA2
:100820002000FFF7C7FFB77E200039000222FFF744
:10083000D1FF18340F4BBF00E41923600023F37677
:10084000013362B630BF002BD8D048352B78032B4C
:1008500008D1BFF34F8FBFF36F8F72B68023064A64
:100860005B051A60BFF34F8F044B054ADA60BFF394
:100870004F8FFEE7FEFF000055B01F5E00ED00E069
:100880000400FA0570B503008068808A040A4C7081
:100890008870FF24002085B2AA421BD88C54D963EB
:1008A000BFF34F8FBFF36F8F72B6DA7E012A0FD17D
:1008B0000621D976D9680868022141604260997E94
:1008C00003008C0018331B191A600232FFF782FFF5
:1008D00062B670BD0D5C01306C40DCE710B5806A1B
:1008E000FFF7D0FF10BD70B50500C368017E1C681E
:1008F00081222000FFF75EFFAE7E20003100012242
:10090000FFF768FF02236360013B6360B600064B9C
:100910001834A61933606B7E9B00E418034B2360E8
:100920000023EB76EB6270BD17110000FFFF0000A3
:10093000802301385B0498420DD2C021064A090683
:1009400050600648036A1B021B0A0B430362002324
:10095000936007331360704710E000E000ED00E0A3
:10096000802070B54004FFF7E3FF00F0ABF81F21D3
:1009700001220A4B80245B68094D19408A405B06BE
:1009800008499B0F9B005958E4039000AB68234033
:100990005E4273415B4213404350F7E70000001092
:1009A00010E000E0AC280000F0B5430685B09B0FD6
:1009B0003B4E01939B009A591F238DB20340029333
:1009C0002B0B1B03039301231C009C46029B8F14DB
:1009D0009C408023A4B26D0B1B02032D24D1D5585B
:1009E0002543D550E022039C0623D20194424BD1EB
:1009F0000905090DC20501D58022114300221F24DB
:100A00004012050025409D4244D10C2301980A4321
:100A1000434302981B185B00F3181B8C21481B18DA
:100A20009B001A6005B0F0BDD558A543D550802273
:100A3000039C00239201944217D11B4A904203D198
:100A40001A4A13600723D3E7194A904203D1174B80
:100A500062461A60F6E7174A904201D1164AF0E75B
:100A6000164B9842EED1144BF2E70F2F0CD1320007
:100A700010329C00A458A04204D00133042BF8D1BA
:100A8000FFF76EFF0E4A13603B1C002F00DC0123B2
:100A90001BB2ADE701324011042AB2D1F0E7C046E3
:100AA000AC2800000010011002C23A00C04004400F
:100AB00063823D0025423C00D040044049C2010011
:100AC000D4400440C02110B5054CC9016068FFF74F
:100AD0006BFF8021A0684901FFF766FF10BDC0468B
:100AE000000000101021F0B5037EC26899400D008F
:100AF00012680400106885B005400095014226D0B8
:100B0000980013002C331B1818681300A57E1833A7
:100B1000AD005D192E68657EAD005B191B688342D0
:100B200015D92369B84D5F06BF0FBF007F591F2538
:100B30002B401B3D9D40EB59002B02D0116005B0AE
:100B4000F0BD9368984217D81B1A032BF3D9E07EA7
:100B50000D2801D900F073FC01F04EFC11003400A7
:100B6000370041008C0128025202E70226033A03B3
:100B7000EA0311043F04500401339B19E4E7E368DE
:100B8000A17E1D6801238B402A681A4206D10523E5
:100B9000AB60FF22E3681B681A60D0E72B008A0075
:100BA00018339B18A62252011A6028000322FFF76F
:100BB00011FE0623217EE3760A338B402A681A420F
:100BC000C5D1E6E7009B002BE3D02200002358327A
:100BD00023631380FF22E362013362652365E368C8
:100BE000A17E1D688B002E001836F618874B3768DB
:100BF000032233602800FFF7EDFD009B002B00D09F
:100C00001AE1626D002A05D021005831088810339E
:100C100003430B800021256BE1620631236DE176F1
:100C2000072D00DC81E0002B01D0002A1FD022001C
:100C30008023583211880B431380754E22005C329A
:100C40001378002B05D0230001215E331970002397
:100C50001370E36881221D68217E2800FFF7AAFD3A
:100C6000A37E18359B00013EE818066091E72C2210
:100C7000236C1B789343902BD9D1A06803685B6BDE
:100C80009847854251DC236C1979DA7809021143BF
:100C90005B7949BAA26889B27F2B74D94D424D4124
:100CA000506BEDB2031E04D003681B689847C34322
:100CB000DB0F1D43A3681B6B1B7D5B0701D5002D5C
:100CC000BBD02025206C002302782A4212D1216853
:100CD0000E787240AA439A420CD1226B013A01333A
:100CE000934203DAC65CCD5CAE42F8D09B1A5A42FE
:100CF0005341DBB26268002A4BD000232200E3623A
:100D00005832118840330B431380A36840211B6B7A
:100D10001A7D01239207D20F5340226C12780A40A9
:100D2000134349D00023E36287E7236B012B00D0F4
:100D30007DE7220021005C32107858310B880028B2
:100D40006CD00020107010229343E26C0B80824222
:100D500002D0636BCC2B12D0E169236A994203DA8B
:100D6000616AA36A99422FDB002A02D0636BCC2B05
:100D700005D0220080235A3211880B4313802000B3
:100D8000FFF77FFB59E7908A401A43425841C5B2AA
:100D900090E7CC21E162002BB7D1236B216C9A4202
:100DA00005DB63602300002258331A80ADE7895CBD
:100DB000236899540132F0E7E36A002B00D13CE745
:100DC0000523144EE37639E72300200021005A332F
:100DD0005D305E31002A0DD0626BC02A01D0002A3E
:100DE00008D110221D880C4E2A431A80012303705B
:100DF0000B7023E704221D882A431A800023037006
:100E000001330B7019E7C046AC280000FEFF00005C
:100E1000F0130000B3050000A13C0000626BCC2A77
:100E200006D00C2A04D0C02A02D0002A00D0FEE648
:100E3000902293430B8000E72B00217E2C33880007
:100E40001B18AA681B68934211D8D31A0233AB60EF
:100E5000CC4B812233602800FFF7ACFC0423E376FF
:100E600000236363A36401336364E36491E60132A6
:100E7000D219EAE70120E368A17E1B6888401D685B
:100E80002A000240054266D0890018335B181968B1
:100E90000131A36C1800443088426DDA8027683332
:100EA000A3647F001E00606C44364500B14202DD41
:100EB0002436B84255DD21338B4209DA80235B00AA
:100EC000984205DC200058300688FC3B3343038001
:100ED0006564002A5ED0636B256BDAB26263002D15
:100EE00008D19B0706D022008023583211885B006E
:100EF0000B431380A06803685B6B9847854242DA16
:100F0000236B226C616B581C2063D154636D626B40
:100F100053406365E36C002B05D121000822583152
:100F2000088802430A80226DA17E134023650323B3
:100F3000E376E3688A001D682B0018339B18ED22C6
:100F400028001A60EC3AFFF745FC81222800217E38
:100F5000FFF730FC1DE6217E2C3389005B181968F1
:100F600097E7636BA66403436363E36C656458426D
:100F70004341E364330095E720000423583005889B
:100F80002B430380A5E722002023583211880B430E
:100F90001380BFE78223DB00994200DCF9E52200E1
:100FA0000123583211880B431380F2E5009B002B7C
:100FB00004D00023E3620223E376C8E5009B6821A6
:100FC000A363E3681D68637E2A009B001832D31870
:100FD0001960A17E28008B00D2188A231360032297
:100FE000FFF7F8FB81222800217EFFF7E3FB009B3F
:100FF000009A236323005A331A800723E376C8E557
:10100000009B002BD7D126005E363378002B07D00B
:10101000E269236A9A4208DA626AA36A9A4204DAA7
:1010200023005F331B78032B08D9220080235A3218
:10103000118820000B431380FFF723FAE26B002A8C
:101040005AD00F2153790B400833A3633378002B18
:101050000BD020231178194207D099431170A26B4D
:10106000E16B013A885C43408B54E36B216A1D7845
:1010700024231D40243D6B1E9D41434B6D421D406A
:101080000023A235FF35994203DDA26AD3179B1ACC
:10109000DB0F3278002A00D1D3E1E26901329142BC
:1010A00014DD002B12D0636AA26A013393420DDA79
:1010B00023005F331B78032B08D083203A21334B66
:1010C000FF311B68584301F091F94D19E368186826
:1010D000637E02009B001832D3181D60A17E22356A
:1010E0008B00D21815600322FFF774FB2200002347
:1010F0005A322363138080E7E36881221D68217ED2
:101100002800FFF757FBA67E280031000222FFF7D8
:1011100061FB18351E4BB600AE193360637E9B0031
:10112000ED181C4B2B60012368E7E368A17E18686B
:1011300001238B4002681A422ED10300227E2C33F9
:1011400092009B180200657E1832AD0055191B688D
:101150002E6837001E3F9F4208D9236B002B02D018
:101160002000FFF75DF90B4B2B6024E79E4206D968
:1011700080688900013022335218286013600823E8
:101180003CE7C04677040000C7FEFFFF6000001088
:10119000FEFF0000FFFF000008232200E3765A3222
:1011A000118818330B431380E36A002B04D1236B9F
:1011B000E26B591C2163D35C802009220121636307
:1011C0004000013A002A25D1012363640833E37605
:1011D0000126E368A27E1D68330029689340080059
:1011E0001840019019427FD12B00227E2C339200AF
:1011F0009B181F68022F00D8CBE46821380001F04B
:10120000F5F83D290DD82000FFF70AF92000FFF777
:101210006AFBBEE4636B194201D04340636349003B
:10122000CFE7637E18359B00ED182B68073BBB4268
:1012300000D8AEE42000FFF7F3F82300019A5833FA
:101240001A80FF236365E36A2665E664002B31D0CC
:10125000E262A37E68210193E3681B681E0002938B
:10126000019B18369D00751928680238C01B01F0D3
:1012700037F8636C3A0001300341683AA264626B4C
:10128000591E0A4094460A21636462635B10002B76
:101290001FD1683359437B1ECB1803222B60019961
:1012A0000298FFF797FA637E684A9B00F3181A606A
:1012B000042381E6226B013A2263226B9A42C8DD45
:1012C000E26BD15C226CD154626D01334A4062659D
:1012D000F3E762460139134204D0E06C0200504249
:1012E0005041E0645B10D2E78023616C9B0099421F
:1012F0001EDC6820013B676BFF3B4E00394201D08A
:1013000099420FDD8021637E18359B006664890059
:10131000EB188E4209DD4D4992000138AD18196075
:10132000286036E431006830E7E701002339F3E74D
:10133000216BA26BE368914217DAE26A002A14D1AA
:101340000732E2761D68627E2B00920018339B18EC
:101350008B2252001A603A23FF33A27E1835920086
:10136000013BA8180360FFF714FC0B22E2761D680E
:10137000217E28007532FFF71DFA4523EDE7E36A69
:10138000E168002B0BD00023E3620633E3760D689F
:1013900081222800217EFFF70DFA2D4BDDE7230087
:1013A00001225C331A700C23E3760D68A17E2800BD
:1013B000FFF710FA23005E331B78002B07D02300C1
:1013C0005D331B78002B04D0636A01336362214BC9
:1013D000C3E7E3690133E361F9E70D23E376E368EB
:1013E00081221D68217E2800FFF7E4F9A37E1835CD
:1013F0009B00ED18184B2B60FFF7CBFB009B002BDD
:1014000000D0D8E5230001225E331A70009A023B17
:101410001A70220008235A3211880B4313800623C6
:10142000E376E368A17E18688A00030018339B18EE
:101430000A4A1A600322FFF7CDF9FFF7AAFBFFF76C
:101440008FFA002B00D033E640E6C046FFFF0000D5
:10145000F0130000B20500009C060000EF1300002E
:1014600010B5024B9869FFF73DFB10BD60000010FE
:1014700070B50D4C0600A5680120ADB2022E06D94C
:101480000A4B0B49186800F02BFF023E70430028FE
:1014900000DC70BDA3689AB2AB1A01D561685B1815
:1014A0001500C01AF3E7C04610E000E00C00001081
:1014B00040420F00134B10B51A68D20704D41B68C2
:1014C0009B0701D4FFF74CFA0F4B5B68DB050CD090
:1014D0003E24FA20013C0001FFF7CAFF002CF8D19E
:1014E000FA20C000FFF7C4FF10BDFA23074A1168B5
:1014F0001068884201D130BFFAE7013B1168002B28
:10150000F6D1F1E710E000E000ED00E0600000102F
:10151000802070B54004FFF70BFAFFF7D3FA1F21C4
:1015200001220A4B80245B68094D19408A405B0602
:1015300008499B0F9B005958A4039000AB682340B7
:101540005E4273415B4213404350F7E700000010D6
:1015500010E000E0AC280000CB0903704B06DB0F65
:1015600043708B06DB0F8370CB06DB0FC3700F233A
:1015700019400171704710B5040000F051FF2000C0
:1015800010BD10B50400431DDA7F002AFCD10132E2
:10159000DA770F23E169A0694A791A40073201F02E
:1015A0003BF82000FEF760FF10BD70B50379040022
:1015B000002B3CD0431DDB7F002B38D14379002B1F
:1015C00035D01D4DC2682B689B1A1C4A934201D925
:1015D000FEF799FF6379012B12D1A31DDA7F012A4F
:1015E00025D1DA7F012A22D1013262712000DA7717
:1015F000FFF7C7FF0023A3722B6823612B68E3600A
:101600006379022B13D122692B689B1A0C4A9342EF
:101610000DD90A23E3562000022B09DCFFF7B1FFA6
:10162000A37A0133A3722B6823612B68E36070BD3A
:10163000FEF769FFFBE7C046600000106F1700006F
:10164000B70B0000F0B5040085B0FFF7AEFFA36A4A
:101650005A68002A37D0DA6B002A34D1DA6A002AB5
:1016600031D1226B127D52072DD5C0201D685B68D9
:101670002A79DBB20293EB7812021A43AB79EE7946
:101680001902800001400E43F021A027890031405B
:10169000BF00B94209D000DD6BE008008027813827
:1016A000FF38B84380B2002865D18EB2002A64D1D9
:1016B00023682A009F6931002000029BB8472368F5
:1016C00020001B6A9847E06A00283AD0C449FFF717
:1016D0006BF9E26AC34D53069B0F9B0058591F23B9
:1016E0001A401B3B93401B58666C5A1E9341BE4ADE
:1016F0001800216C1268B34200D17CE1E26363649C
:101700000800002807D1002905D07F23226B5B4207
:10171000117D4B401375C021E06AC901FFF744F900
:1017200001201F220100E36A1A409140226B5B06F0
:10173000127D9B0F02409B00EB58013A0A40890042
:10174000CA50A36ADA6B002A11D1DE6A002E0ED1CC
:10175000230048331B78002B09D0250049352B780E
:101760002000002B00D152E1FEF7CDFE2E7005B017
:10177000F0BD814299D0B6B298E7697952BA92B277
:101780007F2908D90299236800915F6931002B00F5
:101790002000B84793E7A18A914200D08FE73C220E
:1017A00019009143AA7868781202024357BA48B2E6
:1017B000BAB2002800DB8BE06579802915D0812939
:1017C00037D0D90761D4012D00D878E7E18891425C
:1017D00000D074E708210F2061569B0803408B421C
:1017E0003AD02000FEF78FFE69E7002D11D0013DB1
:1017F000012D00D963E7E388934200D15FE77A497E
:1018000020008B8A01338B8200238121FEF75EFE4C
:1018100055E7236820009B6A9847734BE7801B6855
:101820002581E3606379012B00D148E701236371CF
:1018300045E7013D012D00D941E7E388934200D0FF
:101840003DE70023684A6371938A216801339382DC
:1018500020008B6A984732E70026634B01311B68F2
:101860000140A71D2172E360E51DFE77EB7FB342C7
:10187000DCD0216A4A7902400732E06900F0CCFEF0
:10188000EB7FDBB2FB77EE77CCE7FF2B00D116E7DF
:10189000002D00D113E7082161569B061B0F8B42D8
:1018A00000D00CE7E388934200D008E70A23E35610
:1018B0002000022B96DC022D94D1FFF762FEA37A62
:1018C0000133A372484B1A681B682261E360F6E695
:1018D000032B21D8671DFB7F002BFCD10C2101338A
:1018E000FB772878A36908405C3901431970110A15
:1018F000D9701A7122680093D36931009C462A007E
:1019000020006546029BA847002803D02000FEF770
:10191000ABFDD4E6F877D2E6E1888A4200D0CEE685
:101920006179002900D1CAE69B08092118000F2718
:10193000615638400300884243D1C2212000FEF79F
:10194000C5FD637A01333B406372274B1B68E3603C
:10195000A31DDB7F002B2DD12300E76925330393E3
:101960000123039A3100137023680097DB692A0072
:101970009C4620006646029BB04700281ED00C23E0
:101980002A781A405C3B13433B70E3881A0A3B7188
:101990000823FA70E269E356974202D00F2201331E
:1019A00013403C21BA799B008A43134340221343DE
:1019B000BB7184E62300276A2633D0E7039B1870A7
:1019C0007DE60139084D394088420FD1C2212000FF
:1019D000FEF77CFDEB8A0133EB822B6876E7C0468D
:1019E00010100000AC28000060000010C32120008F
:1019F000FEF76CFDF1E7E36B002B00D180E6D21A15
:101A0000322A00D57CE600232064E36379E64C307B
:101A1000FEF77AFC002800D1A9E6236820001B6BA2
:101A20009847A4E6F0B50B7885B0514C0090292B6F
:101A300027D113780A2B24D1251D601DC67FEB7F8B
:101A40003343A61DF67F3343E61DF67F334318D19B
:101A5000230028331B7826009C4623000836019675
:101A6000664629331B78434F1B023343BB4208D1E0
:101A70000F26019BDB7F3340012B02D1FE33EB7736
:101A8000C3773D4B9E78009B1878682323771578A1
:101A9000E3776577A5778833002E00D1203B0F26AA
:101AA00030400343651CEB770978A31CD9770023EA
:101AB0002100180016781C31351D4D1901319E4248
:101AC0004DD116212870137802ADE3180233D9776F
:101AD000631CD97F28001778FFF73EFDEB78BE1D09
:101AE000002B1FD0FEF72BFC00281BD0AA78202348
:101AF000002A00D0C0334020E719203739785B181E
:101B00003B7069782B784942DB0101400B43DBB223
:101B1000002A2AD010220F2013432A79611C024088
:101B20001343CB772500FEF719FC20001C35290054
:101B3000F2B23C30267200F06FFD227A29000F4885
:101B4000FEF738FD236823681A003632363300D199
:101B50000122626000220A4B5A6005B0F0BDCF78C6
:101B60000133C019C0B2DBB2A8E73022D3E7C046C8
:101B7000600000100140000000000010540100103F
:101B8000FC000050F7B50700FEF758FC0023BC6AC4
:101B90003B496360E363E3616362A363A365E36559
:101BA000E368384A8B424BD1C421FF25364889006F
:101BB0004258AA434250012635001A793349C86F6A
:101BC0000192073295402A001D6800230243CA672C
:101BD0003100EB636B61AB62637E6A6F99400B000F
:101BE00013436B676B682A4933436B60294B186852
:101BF00000F076FB0138E8602000FEF774FE264B0B
:101C0000AB60637E9E4033001E00EA6B16401342B9
:101C1000FAD1E0216069C901FEF7C6FE1F492069BB
:101C2000FEF7C2FEFF231F222B60019B10331340DF
:101C30001E3A11009940144B1960FE633A64F7BDD7
:101C4000110064318B4206D1C4210F4889004258EB
:101C5000134D2A40AEE711006C318B4205D1C421EF
:101C60000948890042580F4DF3E774329342A2D1DC
:101C7000C4210548890042581202120A9AE7C04658
:101C8000BC0000106000001000E100E0048004408F
:101C900040420F000C000010FFFF00002020000059
:101CA000FF00FFFFFFFF00FFF0B5BA4887B0BA4C56
:101CB000FEF72AFB002805D0A02280238021D20530
:101CC0009B00D150B54D2800FEF7FCFC431C4AD1C7
:101CD000201DFEF719FB002805D0227A002A00D02B
:101CE00098E1FEF73BFBAE4EB76C7B68002B2ED025
:101CF000FEF725FB00282AD1A0228023D2059B00D5
:101D0000D05023681A006432643300D10122237A50
:101D1000E267002B1BD1FEF712FB051EFBD1200052
:101D20007A683968013A223000F076FC032302AA6F
:101D300013722633D371B36C06325B6804A8013387
:101D4000137002ABD91DFFF76DFEB36C5D60637B52
:101D5000002B06D0236822699B1A362B01D9FEF787
:101D600007FB07B0F0BD23682361637B002B07D11D
:101D7000A02808D00ADC102801D06828A2D16073FE
:101D8000227B1F2A11D9FEF701FB9BE7E52899D199
:101D9000FEF7D5FAFEF7E2FA0123824A91784B402A
:101DA00093704022804B5A608CE77D4D531CDBB210
:101DB0002373A854162800D084E7627B102A23D10D
:101DC000032B00D87EE7042B15D12B78102B12D1D2
:101DD000EB78162B0FD16A78AB789A420BD104AE10
:101DE000FEF728FCFEF7ABFA30006978FFF7B4FB8A
:101DF0007378002B02D1FEF7BBFA63E73379002B2F
:101E0000F9D1FEF7C3FAF6E7682A00D05AE7052BA6
:101E100000D857E72A78682AEDD1EA78682AEAD10B
:101E20006E78AA78B242E6D1EA18013A1278162AF8
:101E3000E1D1B21D93425BD1002228001100013094
:101E4000964259D1023BEA18EB5C01928B42D2D107
:101E500004AFFEF7EFFBFEF772FA38002979FFF7BF
:101E60007BFB3B79032BC6D1FB78002BC3D0019BB6
:101E7000B9781A784B4BD878884203D10027D85FBD
:101E80008242B8D0D9701A806B79432B6BD039D885
:101E9000112B00D18AE0412BADD12A7B6D7B2D0225
:101EA0001543032DA7D1200004220021223000F089
:101EB00073FB230063220833DA77230028331D7075
:101EC0002300233A29331A70230000222A331A7080
:101ED000230012322B331A7002AB581D8E2302AA34
:101EE0009371823BD371130005700732991D37E05F
:101EF000934200DCE6E67EE7C7780132C919C9B231
:101F0000D2B29CE7A72B03D0A92B00D179E772E7C7
:101F1000AB8EE21C1B0AD377AA8E231DDA77002230
:101F2000631DDA770123A11DCB77E11DCA7721005C
:101F30000831CB772300E4212833197023008A3934
:101F40002933197023002A331A70032302AA53710C
:101F5000A53393719E3BD37113000732991D581D11
:101F6000FFF760FD47E70023697AE21CD377221D63
:101F7000D177A97A621DD177A21DD377E21DD377DD
:101F800022000832D377033302AA5371833393714B
:101F90007F3BE0E7DC0000106000001054010010FF
:101FA000E000001000000010FC0000506F7802AB51
:101FB0005F710C232000AA7929001A4001921C307D
:101FC000321D00F029FB019AE31CDA77032302AAF1
:101FD00093712B33D37113000532D91D981DFFF770
:101FE00021FD2B0044331A78002AFCD1AE6B023F4E
:101FF00001321A70A91D3A00300000F00DFB502389
:10200000019A5B42134333703100A86CBAB2FEF7F9
:1020100039FCF0E60A21635E002B00DC61E621005A
:1020200028003C31FEF7C6FA23681A0036323633F0
:1020300000D10122626000226389013B6381014B70
:102040005A6050E6FC00005080B500AF014B18000C
:10205000BD4680BD98280000F0B50025694B85B0CD
:10206000694F1D71694B0122FB653B0064331A7196
:10207000674B92187B663B006C331A71654B0132DB
:10208000FB663B0074331A71FA22634B92007B6744
:10209000624B63495A60634A63480192634A1A601B
:1020A000FF335D76FEF780FC61496248FEF77CFCF9
:1020B000FFF7CAFF604C20671C2000F0A7F98123BE
:1020C0005B008360456006000420019BFF302833DD
:1020D0003360F06000F09AF90300021DFF321D70BA
:1020E00001339342FBD10323B361B3683061033BF7
:1020F000B360F3681720033BF360019BB582543350
:102100003360019B6562803323624C4BE562A362BE
:10211000256300F07BF902000300002117321970DB
:1021200001339A42FBD1A063172000F06FF902003F
:10213000030000211732197001339342FBD1E06391
:10214000172000F063F90200030017320021197014
:1021500001339A42FAD13A4B20640393394B602001
:10216000236200F053F92300203383603B00643383
:10217000C360354B05000361344B43610023038387
:10218000172000F043F901000300002217311A70F4
:1021900001338B42FBD103216B7E286402330B4059
:1021A000AB762B4BA8680293EA766B69029A296298
:1021B00093600368A9625B6B9847019000F026F971
:1021C0000022030001990139002916DA21000023B9
:1021D0006831204A0B800299E2644A60039A2860C1
:1021E0007432A56426656365A365E365E366BD6136
:1021F00022627B60FB6705B0F0BD1A7001390133C4
:10220000E2E7C046BC0000106000001000C00040C3
:1022100000000140004001400080014054010010D6
:1022200000103C002C29000047827900342900006E
:102230000060400048828100E0000010FFFF0000C5
:10224000AC290000E029000028C2010029826900B1
:102250000000001040825C008E2120201A4B890073
:102260005A5882435A50002271391A62FF39C046C7
:1022700001390029FBD101221A645A6459645A6455
:10228000596C1142FCD023228E2180209A60890053
:102290005A5882435A500122D9681142FCD0032176
:1022A000196700215A6759675A670122596F11420D
:1022B000FCD09A670549064BD967064B1A60064B56
:1022C0001A60064B1A607047008004405F000100EE
:1022D0000480044094800440988004409C80044022
:1022E000002243088B4274D303098B425FD3030A55
:1022F0008B4244D3030B8B4228D3030C8B420DD368
:10230000FF22090212BA030C8B4202D312120902F5
:1023100065D0030B8B4219D300E0090AC30B8B4233
:1023200001D3CB03C01A5241830B8B4201D38B03E1
:10233000C01A5241430B8B4201D34B03C01A524186
:10234000030B8B4201D30B03C01A5241C30A8B42C9
:1023500001D3CB02C01A5241830A8B4201D38B02B4
:10236000C01A5241430A8B4201D34B02C01A524158
:10237000030A8B4201D30B02C01A5241CDD2C309CA
:102380008B4201D3CB01C01A524183098B4201D346
:102390008B01C01A524143098B4201D34B01C01A31
:1023A000524103098B4201D30B01C01A5241C308A9
:1023B0008B4201D3CB00C01A524183088B4201D318
:1023C0008B00C01A524143088B4201D34B00C01A04
:1023D0005241411A00D20146524110467047FFE770
:1023E00001B5002000F006F802BDC0460029F7D074
:1023F00076E770477047C04603B47146490840000D
:102400004900095A49008E4403BC704710B5034B7C
:102410000100186800F030F810BDC0461000001030
:1024200010B5034B0100186800F000F910BDC0465C
:102430001000001070B50F4E0D0031680400002927
:1024400002D100F0B1F830602900200000F0ACF8B3
:10245000431C03D101256D42280070BD0323C51C18
:102460009D43A842F8D0291A200000F09DF80130C1
:10247000F2D1EFE770020010F7B50322CB1C9343B3
:10248000083305001F000C2B34D20C27B94233D877
:10249000280000F071F8374E33681C00002C2FD153
:1024A00039002800FFF7C6FF0400431C5FD13468E1
:1024B0000094009B002B4AD1002C52D023682800A6
:1024C000E3180099019300F06FF8019B834248D113
:1024D00023682800FF1A3900FFF7ACFF013040D015
:1024E0002368DB19236033685A68002A33D1009BC4
:1024F000336019E0002BC9DA0C232B600020FEBDED
:102500002168C91B20D40B290AD9E2192760A342EC
:1025100004D1326063681160536005E05A60F9E7E6
:102520006268A3420ED13260280000F02DF820002E
:1025300007220B30231D9043C21A9842DFD01B1A8A
:10254000A350DCE75A60EFE723006468A6E7009C2D
:1025500063680093ADE71A005B68A342FBD10023D8
:10256000DAE70C2328002B6000F00EF8C6E70760BE
:10257000DAE7C0467402001010B5024800F04AF8CD
:1025800010BDC0467802001010B5024800F043F8B4
:1025900010BDC0467802001003008218934200D19B
:1025A000704719700133F9E7002370B5064D040038
:1025B00008002B6000F0AAF8431C03D12B68002B05
:1025C00000D0236070BDC0467C02001070B50026AC
:1025D0000C4C0D4D641BA410A64209D1002600F03E
:1025E0003BFA0A4C0A4D641BA410A64205D170BDEB
:1025F000B300EB5898470136EEE7B300EB58984725
:102600000136F2E7642A0000642A00006C2A000008
:10261000642A000070477047002310B59A4200D129
:1026200010BDCC5CC4540133F8E7FFFF70B5050062
:102630000C1E10D0043C2368002B00DAE41828009C
:10264000FFF79AFF1D4A1368002B05D163601460E1
:102650002800FFF799FF70BDA34208D92068211810
:102660008B42F3D119685B6809182160EEE71A0004
:102670005B68002B01D0A342F9D911685018A04221
:102680000BD120680918501811608342E0D11868F6
:102690005B68411811605360DAE7A04202D90C234D
:1026A0002B60D5E7206821188B4203D119685B683D
:1026B0000918216063605460CAE7C04674020010C4
:1026C00006480749091A8B10C90FC91810B54910D7
:1026D00003D0044B002B00D0984710BD60000010C1
:1026E0006000001000000000054B10B5002B03D067
:1026F0000449054800E000BFFFF7E2FF10BDC046F7
:102700000000000080020010782A000070B50D4E15
:1027100004003568002D01D10B4D356003230334CF
:102720009C432C19200000F011F8002802D13460DD
:10273000280070BD00F016F801250C236D420360DF
:10274000F6E7C046980200109C02001003000448FF
:10275000002803D000228342524110007047C04637
:1027600000000000014B18687047C04610000010C0
:10277000465431322073657475703A2073746172F7
:10278000740A00465431322073657475703A204CD7
:1027900045442D54657374206F6B202864656C610B
:1027A0007973206C696566656E290A00465431327A
:1027B0002073657475703A202D3E206263754674EF
:1027C00031322E626567696E28290A00465431321B
:1027D0002073657475703A20626375467431322EC9
:1027E000626567696E2829206F6B0A004654313292
:1027F0002073657475703A207365744F776E416409
:102800006472657373206F6B0A0046543132207313
:10281000657475703A20736574547850696E206FD2
:102820006B0A00465431322073657475703A205239
:10283000582D70696E4D6F6465206F6B202D3E20A2
:1028400073657269616C2E626567696E28290A007A
:10285000465431322073657475703A20736572691D
:10286000616C2E626567696E2829206F6B0A0046CD
:102870005431322073657475703A207265736574D3
:102880002829206F6B202D3E20736574757020669B
:1028900065727469670A00FF2141565021403A531E
:1028A00042667431322020302E3033000000005058
:1028B00000000150000002500000035026C2330007
:1028C0004782790061C2340F64C2790003000400BA
:1028D00007000B000C000D00130014001800190075
:1028E0001A001D001E001F002000240025002800E3
:1028F00029002A0005000E001B00260002000A0025
:102900001700230010001100000008000900150046
:1029100016001C002100220027002B000F001200CF
:1029200000000000000000000000000000000000A7
:1029300000000000B5050000D7050000C506000036
:10294000550700006B070000210600000000000092
:1029500000000000730500007D05000093050000E5
:1029600045050000590500000000000000000000BF
:102970000000000000000000000000000000000057
:10298000730500007D05000093050000450500006B
:1029900059050000B5030000BB030000C10300009F
:1029A000C50300000000000000000000000000005F
:1029B00000000000AB150000C90300003D0400004A
:1029C0000000000000000000D10300000000000033
:1029D00000000000390500000000000000000000B9
:1029E000000000000000000045160000C9030000C0
:1029F000851B00000000000000000000DD03000057
:102A000019040000DD080000390500000000000086
:102A1000F70700001504000000000000000000009F
:102A20003D0300007715000045160000C9030000B3
:102A3000851B0000D9030000D5030000D10300006E
:102A400019040000DD08000039050000CD03000076
:102A5000F707000015040000F8B5C046F8BC08BC34
:102A60009E46704759200000E9260000F8B5C04690
:082A7000F8BC08BC9E4670474B
:102A7800FFFF010140825C0029826900006CDC02D2
:102A880014000010000000000000000068000000B2
:102A9800D00000000000000000000000000000005E
:102AA800000000000000000000000000000000001E
:102AB800000000000000000000000000000000000E
:102AC80000000000000000000000000000000000FE
:04000003000000DD1C
:00000001FF
